S00F0000746563776172652E737265632A
S3150800280000000120C5C70008A5500008A750000809
S31508002810A9500008AB500008AD50000800000000A1
S31508002820000000000000000000000000B1C200081F
S31508002830AF5000080000000051C30008B15000085E
S3150800284015C8000815C8000815C8000815C80008E6
S3150800285015C8000815C8000815C8000815C80008D6
S3150800286015C8000815C8000815C8000815C80008C6
S31508002870C9500008D950000815C8000815C800082E
S3150800288015C8000815C80008E9500008F9500008DE
S3150800289009510008195100082951000815C80008EF
S315080028A015C8000815C8000815C8000815C8000886
S315080028B015C80008000000000000000015C8000840
S315080028C015C8000800000000000000003951000883
S315080028D00000000015C8000815C800080000000020
S315080028E015C8000815C80008000000000000000010
S315080028F000000000000000000000000000000000CA
S3150800290000000000000000000000000015C80008D4
S31508002910000000000000000015C8000815C80008DF
S3150800292015C8000815C800084951000815C8000848
S3150800293015C80008000000000000000000000000A4
S3150800294015C8000815C8000815C8000815C80008E5
S3150800295015C8000815C8000815C8000815C80008D5
S3150800296015C8000815C8000815C8000800000000AA
S3150800297015C8000815C8000800000000000000007F
S3150800298015C8000815C8000815C800082255AAEE7B
S3150800299010B5054C237833B9044B13B10448AFF38B
S315080029A000800123237010BD1801002000000000DC
S315080029B0E8C9000808B5034B1BB103490348AFF340
S315080029C0008008BD000000001C010020E8C90008BE
S315080029D081F0004102E000BF83F0004330B54FEAC2
S315080029E041044FEA430594EA050F08BF90EA020F2F
S315080029F01FBF54EA000C55EA020C7FEA645C7FEAC2
S31508002A00655C00F0E2804FEA5454D4EB5555B8BFE4
S31508002A106D420CDD2C4480EA020281EA030382EA55
S31508002A20000083EA010180EA020281EA0303362DE7
S31508002A3088BF30BD11F0004F4FEA01314FF4801CBA
S31508002A404CEA113102D0404261EB410113F0004FCC
S31508002A504FEA03334CEA133302D0524263EB430383
S31508002A6094EA050F00F0A780A4F10104D5F1200E21
S31508002A700DDB02FA0EFC22FA05F2801841F100017C
S31508002A8003FA0EF2801843FA05F359410EE0A5F150
S31508002A9020050EF1200E012A03FA0EFC28BF4CF081
S31508002AA0020C43FA05F3C01851EBE37101F0004537
S31508002AB007D54FF0000EDCF1000C7EEB00006EEB44
S31508002AC00101B1F5801F1BD3B1F5001F0CD34908CE
S31508002AD05FEA30004FEA3C0C04F101044FEA445225
S31508002AE012F5800F80F09A80BCF1004F08BF5FEAAC
S31508002AF0500C50F1000041EB045141EA050130BD8C
S31508002B005FEA4C0C404141EB0101013C28BFB1F59D
S31508002B10801FE9D291F0000F04BF01460020B1FAE8
S31508002B2081F308BF2033A3F10B03B3F120020CDABB
S31508002B300C3208DD02F1140CC2F10C0201FA0CF099
S31508002B4021FA02F10CE002F11402D8BFC2F1200CFE
S31508002B5001FA02F120FA0CFCDCBF41EA0C019040B4
S31508002B60E41AA2BF01EB0451294330BD6FEA0404FD
S31508002B701F3C1CDA0C340EDC04F11404C4F12002E8
S31508002B8020FA04F001FA02F340EA030021FA04F3FA
S31508002B9045EA030130BDC4F10C04C4F1200220FA51
S31508002BA002F001FA04F340EA0300294630BD21FA8F
S31508002BB004F0294630BD94F0000F83F4801306BF55
S31508002BC081F480110134013D4EE77FEA645C18BF49
S31508002BD07FEA655C29D094EA050F08BF90EA020FE0
S31508002BE005D054EA000C04BF1946104630BD91EAD8
S31508002BF0030F1EBF0021002030BD5FEA545C05D1DB
S31508002C004000494128BF41F0004130BD14F5800419
S31508002C103CBF01F5801130BD01F0004545F0FE418D
S31508002C2041F470014FF0000030BD7FEA645C1ABFC2
S31508002C30194610467FEA655C1CBF0B46024650EAF9
S31508002C40013406BF52EA033591EA030F41F4002125
S31508002C5030BD00BF90F0000F04BF0021704730B5AB
S31508002C604FF4806404F132044FF000054FF0000180
S31508002C7050E700BF90F0000F04BF0021704730B541
S31508002C804FF4806404F1320410F0004548BF404216
S31508002C904FF000013EE700BF42004FEAE2014FEA6B
S31508002CA031014FEA02701FBF12F07F4393F07F4F46
S31508002CB081F06051704732F07F4208BF704793F049
S31508002CC07F4F04BF41F40021704730B54FF460745C
S31508002CD001F0004521F000411CE700BF50EA01025F
S31508002CE008BF704730B54FF000050AE050EA010208
S31508002CF008BF704730B511F0004502D5404261EB78
S31508002D0041014FF4806404F132045FEA915C3FF4B8
S31508002D10D8AE4FF003025FEADC0C18BF03325FEA55
S31508002D20DC0C18BF033202EBDC02C2F1200300FA06
S31508002D3003FC20FA02F001FA03FE40EA0E0021FA2B
S31508002D4002F11444BDE600BF70B54FF0FF0C4CF419
S31508002D50E06C1CEA11541DBF1CEA135594EA0C0FCB
S31508002D6095EA0C0F00F0DEF82C4481EA030621EA06
S31508002D704C5123EA4C5350EA013518BF52EA033541
S31508002D8041F4801143F4801338D0A0FB02CE4FF0F3
S31508002D900005E1FB02E506F00042E0FB03E54FF023
S31508002DA00006E1FB03569CF0000F18BF4EF0010E1B
S31508002DB0A4F1FF04B6F5007F64F5407404D25FEA17
S31508002DC04E0E6D4146EB060642EAC62141EA5551CA
S31508002DD04FEAC52040EA5E504FEACE2EB4F1FD0C0C
S31508002DE088BFBCF5E06F1ED8BEF1004F08BF5FEA8A
S31508002DF0500E50F1000041EB045170BD06F000463C
S31508002E0046EA010140EA020081EA0301B4EB5C04E8
S31508002E10C2BFD4EB0C0541EA045170BD41F48011E0
S31508002E204FF0000E013C00F3AB8014F1360FDEBF05
S31508002E30002001F0004170BDC4F10004203C35DAE1
S31508002E400C341BDC04F11404C4F1200500FA05F364
S31508002E5020FA04F001FA05F240EA020001F0004205
S31508002E6021F0004110EBD37021FA04F642EB06017B
S31508002E705EEA430E08BF20EAD37070BDC4F10C04A5
S31508002E80C4F1200500FA04F320FA05F001FA04F269
S31508002E9040EA020001F0004110EBD37041F1000155
S31508002EA05EEA430E08BF20EAD37070BDC4F1200560
S31508002EB000FA05F24EEA020E20FA04F301FA05F2C8
S31508002EC043EA020321FA04F001F0004121FA04F270
S31508002ED020EA020000EBD3705EEA430E08BF20EA40
S31508002EE0D37070BD94F0000F0FD101F0004640007A
S31508002EF041EB010111F4801F08BF013CF7D041EAFC
S31508002F00060195F0000F18BF704703F000465200FF
S31508002F1043EB030313F4801F08BF013DF7D043EAD0
S31508002F200603704794EA0C0F0CEA135518BF95EA86
S31508002F300C0F0CD050EA410618BF52EA4306D1D10D
S31508002F4081EA030101F000414FF0000070BD50EA2C
S31508002F50410606BF1046194652EA430619D094EAB6
S31508002F600C0F02D150EA013613D195EA0C0F05D1A0
S31508002F7052EA03361CBF104619460AD181EA0301F4
S31508002F8001F0004141F0FE4141F470014FF00000AC
S31508002F9070BD41F0FE4141F4780170BD70B54FF047
S31508002FA0FF0C4CF4E06C1CEA11541DBF1CEA1355C7
S31508002FB094EA0C0F95EA0C0F00F0A7F8A4EB0504A9
S31508002FC081EA030E52EA03354FEA013100F08880A0
S31508002FD04FEA03334FF0805545EA131343EA126369
S31508002FE04FEA022245EA111545EA10654FEA00261E
S31508002FF00EF000419D4208BF964244F1FD0404F5D7
S31508003000407402D25B084FEA3202B61A65EB030532
S315080030105B084FEA32024FF480104FF4002CB6EBEF
S31508003020020E75EB030E22BFB61A754640EA0C006F
S315080030305B084FEA3202B6EB020E75EB030E22BFAF
S31508003040B61A754640EA5C005B084FEA3202B6EBF0
S31508003050020E75EB030E22BFB61A754640EA9C00AF
S315080030605B084FEA3202B6EB020E75EB030E22BF7F
S31508003070B61A754640EADC0055EA060E18D04FEA3D
S31508003080051545EA16754FEA06164FEAC30343EADD
S3150800309052734FEAC2025FEA1C1CC0D111F4801FAA
S315080030A00BD141EA00014FF000004FF0004CB6E7A3
S315080030B011F4801F04BF01430020B4F1FD0C88BF42
S315080030C0BCF5E06F3FF6AFAEB5EB030C04BFB6EB4D
S315080030D0020C5FEA500C50F1000041EB045170BD40
S315080030E00EF0004E4EEA113114EB5C04C2BFD4EB6D
S315080030F00C0541EA045170BD41F480114FF0000EF1
S31508003100013C90E645EA060E8DE60CEA135594EA6C
S315080031100C0F08BF95EA0C0F3FF43BAF94EA0C0F6F
S315080031200AD150EA01347FF434AF95EA0C0F7FF4E4
S3150800313025AF104619462CE795EA0C0F06D152EA38
S3150800314003353FF4FDAE1046194622E750EA41061C
S3150800315018BF52EA43067FF4C5AE50EA41047FF42D
S315080031600DAF52EA43057FF4EBAE12E74FF0FF3C92
S3150800317006E000BF4FF0010C02E000BF4FF0010C63
S315080031804DF804CD4FEA410C7FEA6C5C4FEA430CDC
S3150800319018BF7FEA6C5C1BD001B050EA410C0CBF2B
S315080031A052EA430C91EA030F02BF90EA020F00208D
S315080031B0704710F1000F91EA030F58BF994208BFF4
S315080031C090422CBFD8176FEAE37040F001007047B1
S315080031D04FEA410C7FEA6C5C02D150EA013C07D108
S315080031E04FEA430C7FEA6C5CD6D152EA033CD3D053
S315080031F05DF8040B704700BF8446104662468C464D
S315080032001946634600E000BF01B5FFF7B7FF00287F
S3150800321048BF10F1000F01BD4DF808EDFFF7F4FFA8
S315080032200CBF012000205DF808FB00BF4DF808ED33
S31508003230FFF7EAFF34BF012000205DF808FB00BF56
S315080032404DF808EDFFF7E0FF94BF012000205DF878
S3150800325008FB00BF4DF808EDFFF7CEFF94BF01202D
S3150800326000205DF808FB00BF4DF808EDFFF7C4FF26
S3150800327034BF012000205DF808FB00BF4FEA410279
S31508003280B2F1E04324BFB3F5001CDCF1FE5C0DD9B6
S3150800329001F0004C4FEAC0024CEA5070B2F1004F00
S315080032A040EB830008BF20F00100704711F0804F03
S315080032B021D113F13872BCBF01F00040704741F4C8
S315080032C080114FEA5252C2F11802C2F1200C10FACC
S315080032D00CF320FA02F018BF40F001004FEAC123B0
S315080032E04FEAD32303FA0CFC40EA0C0023FA02F354
S315080032F04FEA4303CCE77FEA625307D150EA01332A
S315080033001EBF4FF0FE4040F44000704701F00040F9
S3150800331040F0FE4040F40000704700BF08B501F0D9
S3150800332079F800F0010401F047FA044000F07AFB4E
S31508003330044000F0D9FF044000F0C6FD044000F048
S3150800334017FE044001F07AF8044000F01BFC044024
S3150800335001F0DCF9044000F00DFF044000F09EF98E
S31508003360044000F0F9F804421AD106F015FC0220D0
S3150800337001F044F80D4B1B689B0B642202FB03F318
S31508003380002BF4D000BF00BF00BF00BF00BF00BFC6
S3150800339000BF00BF00BF00BF00BF00BF013BEFE793
S315080033A0034B186806F06BFCFEE700BF940000208C
S315080033B03401002008B5054A0021054806F001FC3D
S315080033C0044B1860003818BF012008BD0CCA000855
S315080033D01D3300083401002000B585B0EC468CE8A2
S315080033E00F0000231A4661460548006806F065FE88
S315080033F00121044B186806F0EFFC05B05DF804FBE4
S31508003400440100204001002008B50146024B186817
S3150800341006F0E2FC08BD00BF4001002030B589B0C7
S315080034207FE000231A4602A94848006806F087FE8E
S315080034309DF808509DF81130012B11D0022B2FD082
S31508003440002B7BD1082D37D86AB2002A76D0013DE9
S31508003450072D73D8DFE805F0383C4072474C585BB7
S31508003460142D08D9FF228DF81820059A012106A8DF
S3150800347000F0C8FE62E0284600F0A0FA01908DF838
S31508003480185004220DF119010DEB020001F086FE19
S315080034909DF81130059A052106A800F0B3FE4DE007
S315080034A004220DEB02010DF1090001F077FE0199E6
S315080034B0284600F02FFA41E0FF2D3FD1002000F00A
S315080034C0C5F803F013F939E0012000F0BFF835E03C
S315080034D0002000F0BBF831E040F6B8311C4B186804
S315080034E006F03EFC2AE00021132000F059FA25E0F8
S315080034F006228DF8182004228DF81920059A022133
S3150800350006A800F07FFE19E000F09EFA16E000F02B
S31508003510BBFA13E0022000F071FF12E0002000F071
S3150800352095F84FF0FF33002207210A48006806F095
S31508003530A0FC044610F0010F7FF473AF14F0020FDD
S31508003540E8D114F0040FECD0E8E700BF44010020EE
S31508003550380100204001002070B52A4806F01AFC00
S31508003560294B1860041E18BF0124284A0021284840
S3150800357006F027FB274B186000280CBF002404F030
S315080035800104254A1021082006F04CFD234B18603B
S3150800359000280CBF002404F00104214D214B02220F
S315080035A00121284606F088FB1F4E306000280CBF14
S315080035B0002404F001041D4B04220121284606F0CC
S315080035C07BFB1B4D286000280CBF002404F0010477
S315080035D04FF47A71306806F0C3FB002814BF002444
S315080035E004F0010440F6B831286806F0B9FB002853
S315080035F014BF002404F001040E4800F02BFE2046F8
S3150800360070BD00BFA8CA000840010020D0CA000843
S315080036101D34000848010020B8CA000844010020EB
S315080036200934000898CA00083C01002088CA000826
S3150800363038010020D933000808B50146024B18683E
S3150800364006F0CAFB08BD00BF4C01002010B50446B1
S315080036500146032000F096FE2146122000F0A0F94C
S3150800366010BD08B5122000F0BDF908BD08B5F2EE88
S31508003670087AB4EEE70AF1EE10FA01DDB0EE670A51
S31508003680F8EE087AB4EEE70AF1EE10FA01D5B0EED4
S31508003690670A00F0B5FC00F0010008BD38B5174A06
S315080036A00021174806F08DFA164B1860041E18BF3D
S315080036B00124154806F06EFB144B186000280CBF51
S315080036C0002404F00104124B01221146114806F0A9
S315080036D0F3FA114D286000280CBF002404F00104F9
S315080036E09FED0E0AFFF7C2FFC821286806F038FBCF
S315080036F0002814BF002004F0010038BD48CB00089C
S31508003700213700085401002028CB00084C0100206E
S3150800371038CB0008393600085001002000000000A8
S3150800372008B52DED088BDFED438AB0EE688A05E013
S31508003730DFED408AB0EE6A0AFFF798FFF0EE689A66
S31508003740B0EE489A4FF0FF33002201213A4800684C
S3150800375006F08FFB10F0010FF4D0384803F0B5FEE1
S31508003760FFF77FFF9FED338AF0EE488A0028E5D001
S31508003770002000F037F9002848D1022000F036F979
S31508003780F0EE408A032000F031F9B0EE40AA04209A
S3150800379000F02CF9B0EE40BA062000F027F9F0EE5A
S315080037A040AA072000F022F9F0EE40BA092000F0FE
S315080037B01DF9B0EE408A052000F018F938EE408A67
S315080037C068EE887ADFED1E6A68EE268A78EEA98AA0
S315080037D02AEE28AA38EE497A27EE0B7A87EE266A69
S315080037E077EE8A7A77EE867AF4EEE7AAF1EE10FAA1
S315080037F09ED4F4EEE7BAF1EE10FA02DCF0EE67AA10
S3150800380098E7F0EE6BAADFED0B8A93E7002000F04D
S31508003810E9F8012804D0F0EE698AB0EE498A8DE706
S3150800382000F0E4F8FFF722FFDFED028AB0EE688ABF
S3150800383084E700BF000000004C010020640300205C
S31508003840CDCC4C3E01288CBF0020012070470000DB
S31508003850084B03EB00139B688B4207D8054B03EB19
S315080038600013DB688B4203D20020704700207047A4
S315080038700120704788CB0008084B03EB00139B68B0
S315080038808B4207DC054B03EB0013DB688B4203DA3C
S3150800389000207047002070470120704788CB000839
S315080038A00C4B03EB0013D3ED027AF4EEC07AF1EE7B
S315080038B010FA0BD8074B03EB0013D3ED037AF4EE9B
S315080038C0C07AF1EE10FA03DA00207047002070473C
S315080038D00120704788CB000808B503010C4AD35C61
S315080038E013F0010F09D113F0020F0BD113F0040FD7
S315080038F00BD00846FFF7A6FF03E000EE101AFFF705
S31508003900CFFF08BDFFF7B8FFFBE7FFF7A1FFF8E712
S3150800391088CB000838B503010D4AD35C13F0080FAD
S3150800392000D038BD04460D464FF0FF31094B1868E4
S3150800393006F022FB29462046FFF7CEFF10B1064BBC
S3150800394043F83450034B186806F045FBE9E700BF17
S3150800395088CB0008580100205C01002038B50446D1
S315080039600D464FF0FF310C4B186806F005FB29464B
S315080039702046FFF7B1FF30B9084B03EBC4031A79A9
S3150800398042F002021A71054B43F83450024B18688C
S3150800399006F021FB38BD00BF580100205C0100205D
S315080039A008B5FFF7DBFF08BD00B583B08DED010A4A
S315080039B00199FFF7D3FF03B05DF804FB38B5044659
S315080039C0064D4FF0FF31286806F0D6FA044B53F837
S315080039D03440286806F0FFFA204638BD5801002012
S315080039E05C01002008B5FFF7E9FF08BD08B5FFF739
S315080039F0E5FF00EE100A08BD08B5034B03EB0013FC
S31508003A005968FFF7ABFF08BD88CB000810B500243E
S31508003A1004E0E0B2FFF7F0FF0134A4B2142CF8D9A1
S31508003A2010BD000010B5064806F05DFA054B186093
S31508003A30041E18BF0124FFF7E9FF204610BD00BF8A
S31508003A4078CB00085801002038B500F0A5FE00F034
S31508003A500105002401E00134E4B2142C0ED8230138
S31508003A60084AD35C13F0100FF5D02046FFF7A6FFDF
S31508003A700146204600F063FE0540ECE700F07EFEB6
S31508003A80284038BD88CB000830B583B0002401250E
S31508003A9001E00134E4B2142C10D82301114AD35C96
S31508003AA013F0100FF5D001A9204600F041FE05409D
S31508003AB0EFD001992046FFF751FFEAE77DB103B041
S31508003AC030BD0134E4B2142CF9D82301054AD35C7D
S31508003AD013F0100FF5D02046FFF78EFFF1E700240C
S31508003AE0F1E700BF88CB000808B572B10D4B60F04E
S31508003AF07F00187000225A7099700B48032383813F
S31508003B0000F0AAFC00F0010008BD064B60F07F003B
S31508003B101870597004480223838100F09DFC00F058
S31508003B200100F1E7080200200000002010B50C464D
S31508003B3092B1114B187000225A709A700F480323DD
S31508003B40838100F089FC00F001000D4B5A789B78C0
S31508003B5043EA0223238010BD074B187000225A70CF
S31508003B6006480223838100F077FC00F00100044B2D
S31508003B705B782380EFE700BF0802002000000020E2
S31508003B801002002038B5144806F0ADF9134D286028
S31508003B90041E18BF01244FF0FF3106F0EDF900208E
S31508003BA000F082FB002282211046FFF79DFF0440A9
S31508003BB0002000F089FB012000F076FB002282211C
S31508003BC01046FFF791FF0440012000F07DFB2868AE
S31508003BD006F001FA204638BDE4CC000804020020AD
S31508003BE02DE9F04182B00F46904600230B70ADF8E0
S31508003BF0063018B1012854D0012600E00126404DB0
S31508003C004FF0FF31286806F0B7F9304600F04CFB54
S31508003C100022A0211046FFF767FF00F00104304696
S31508003C2000F052FB286806F0D6F9642006F036F84C
S31508003C304FF0FF31286806F09FF9304600F034FB54
S31508003C4001220DF106011046FFF770FF04403046C9
S31508003C5000F03AFB286806F0BEF924B3BDF8063032
S31508003C6013F0010F24D15B08ADF80630A8F8003030
S31508003C70234D4FF0FF31286806F07EF9304600F0F4
S31508003C8013FB002284211046FFF72EFF044030461E
S31508003C9000F01AFB286806F09EF9204602B0BDE837
S31508003CA0F0810026ABE73B7843F002033B70F4E76C
S31508003CB0134C4FF0FF31206806F05EF9304600F0ED
S31508003CC0F3FA002239460720FFF730FF304600F0A6
S31508003CD0FBFA304600F0E8FA002282211046FFF788
S31508003CE003FF304600F0F0FA206806F074F93B78D6
S31508003CF003F0FC033B7043F001033B700024CCE760
S31508003D000402002000000000F0B585B0012005F08F
S31508003D10C5FF08226249634801F0C0FF9EE00424FB
S31508003D204FF0FF31604B186806F026F900230AE0C9
S31508003D30E1185B4A32F8111004AA02EB830242F832
S31508003D40101C01339BB2032BF2D91420FFF74EFE49
S31508003D50002325E004AA02EB830252ED047AF8EE6A
S31508003D60677A9FED527A67EE877A9FED517A67EE0A
S31508003D70877A67EE807A4F4A02EB830292ED007AE1
S31508003D8067EE277A4C4A02EB830292ED007A77EEC9
S31508003D90C77A4A4A02EB8302C2ED007A01339BB224
S31508003DA0032BD7D9002401E00134A4B2032C1DD873
S31508003DB0424B03EB84031868FEF76EFF06460F4670
S31508003DC033A3D3E90023FFF745FA0028ECD032A342
S31508003DD0D3E9002330463946FFF728FA0028E3D00E
S31508003DE0364B03EB840300221A60DDE7334C94ED6F
S31508003DF0020A0B20FFF7D8FD94ED030A0C20FFF703
S31508003E00D3FDD4ED037AF5EE407AF1EE10FA36D109
S31508003E109FED2B0A0D20FFF7C7FD284C94ED020AEB
S31508003E20D4ED037A20EE270A0E20FFF7BDFD94EDA8
S31508003E30000A0F20FFF7B8FD94ED010A1020FFF7DE
S31508003E40B3FD94ED000AD4ED017A20EE270A11207D
S31508003E50FFF7AAFD144B186806F0BDF84FF0FF33BC
S31508003E60002203211748006806F003F810F0020F35
S31508003E707FF455AF10F0010FF0D0002450E70F4B38
S31508003E8093ED020A80EE270A0D20FFF78DFDC4E7A1
S31508003E909A9999999999A9BF9A9999999999A93F96
S31508003EA03402002070040020280200200000803D13
S31508003EB00000803974CD000864CD0008180200207F
S31508003EC0000000002C02002010B50F4A00210F4800
S31508003ED005F077FE0E4B1860041E18BF01240D4826
S31508003EE005F058FF0C4B186000280CBF002404F09E
S31508003EF001040A4805F0F7FF094B186000280CBFB3
S31508003F00002004F0010010BD40CD0008093D00085E
S31508003F103002002030CD00082C02002020CD0008F9
S31508003F202802002008B50221024B186805F054FF44
S31508003F3008BD00BF2C02002008B50121024B1868F5
S31508003F4005F04AFF08BD00BF2C020020836D836D73
S31508003F50836D836DC36CDB6B7047000008B5014643
S31508003F60024B186805F038FF08BD00BF4C02002058
S31508003F7038B51A4A00211A4805F023FE194B18606D
S31508003F80041E18BF0124184805F004FF174B1860D3
S31508003F9000280CBF002404F00104154B0122114629
S31508003FA0144805F089FE144D286000280CBF00242B
S31508003FB004F001040021114802F039FC002814BF5E
S31508003FC0002404F001043221286805F0C9FE0028FF
S31508003FD014BF002004F0010038BD00BFD8CD00088A
S31508003FE04D41000854020020B8CD00084C020020BC
S31508003FF0C8CD00085D3F000850020020C803002015
S3150800400008B5064B83ED000A0121054B186805F033
S31508004010E3FEB0FA80F0400908BD00BF4402002064
S315080040204C0200200000000008B52DED028B10EEB2
S31508004030100AFEF731FE11A3D3E90023FEF7CEFCE2
S3150800404010A3D3E90023FEF7A9FFFFF717F908EE37
S31508004050100ADFED097A28EE278A1420FFF7C6FC36
S31508004060C8EE007AFCEEE77A17EE900ABDEC028BF2
S3150800407008BD00BFAFF3008000F07F454A0C022B55
S3150800408087163440166BB8C83D0D41400000000045
S3150800409008B52DED028B2A4BD3ED007A294B93ED0B
S315080040A0008AF4EEC87AF1EE10FA26D517EE900AD1
S315080040B0FEF7F2FD20A3D3E90023FEF78FFCFFF7F6
S315080040C0DDF807EE900A1E4B1860B4EEE78AF1EEAB
S315080040D010FA01D583ED008A194B93ED000AFFF714
S315080040E0A3FF034600221146174802F0D2FBB0FA96
S315080040F080F04009BDEC028B08BDF4EEC87AF1EEFB
S3150800410010FAE9DD17EE900AFEF7C6FD0AA3D3E911
S315080041100023FEF761FCFFF7B1F807EE900A084B9B
S315080041201860B4EEE78AF1EE10FAD5DD83ED008A61
S31508004130D2E700BFAFF300809A9999999999B93F48
S315080041404802002044020020C803002008B54FF0AA
S31508004150FF33002201210648006805F08AFE10F0A8
S31508004160010FF4D0FFF794FF002000F027F9EEE7DF
S315080041704C02002070B5042000F020F91D4C23786D
S3150800418003432370032000F019F9237843EA400318
S315080041902370022000F012F9237843EA8003237083
S315080041A0012000F00BF9237843EAC000C0B2207062
S315080041B0114E336843EA40133360104D10492846C0
S315080041C001F00DFF04463146284601F008FF044376
S315080041D0E4B2284601F086FF0443E4B202212846E9
S315080041E002F0C8F8204310F0FF0F0CBF0120002092
S315080041F070BD00BF580200204400002000040020C3
S315080042006C000020082901D90020704700B587B046
S3150800421012021FFA82FC4CEA03130C4A1278134363
S3150800422043F41073009300230193029303930491BC
S315080042308DF81430012302466946054801F080FFCF
S31508004240B0FA80F0400907B05DF804FB5802002078
S3150800425000040020014B1860704700BF5C02002074
S3150800426030B58FB005AB07AA002101F0DEFF079B2A
S31508004270C3F300220492C3F301138DF80D309DF8A1
S315080042802C208DF80C2001AC214605A800F086FFED
S31508004290034B1D6894E80F00A8470FB030BD00BF58
S315080042A05C0200207047000008B5064B4FEA401C28
S315080042B003EB4010027F818853F80C0003F00BF8DB
S315080042C008BD00BFFCCD000808B5064B4FEA401CE8
S315080042D003EB4010027E818853F80C0002F0FBFFC6
S315080042E008BD00BFFCCD000870B582B0224B1A6E1F
S315080042F042F001021A661B6E03F001030193019B4B
S31508004300012500240BE000231D401C4B4A0103EB4A
S3150800431041110431985802F0FFFE0134E4B2042C2E
S3150800432008D82146154B03EB44139B68002BEAD1AA
S315080043300123E9E700240EE001231D402046FFF78C
S31508004340C3FF0F4B720103EB46110431985802F074
S31508004350E3FE0134E4B2032C0AD82646084B03EBE5
S3150800436044139B68012BE8D0112BE5D00023E4E722
S31508004370284602B070BD00BF001002407CCE00087F
S31508004380FCCD000808B559B10B4B4FEA401C03EBAE
S315080043904010027F818853F80C0002F09CFF08BD8C
S315080043A0054B4FEA401C03EB4010027E818853F808
S315080043B00C0002F090FFF2E7FCCD000838B5044681
S315080043C00D4B420103EB4015A988985802F07CFF73
S315080043D0EB69012B07D0084B03EB44139B69012BB0
S315080043E005D0002038BD0128F5D10120FAE708B12B
S315080043F00020F7E70120F5E77CCE000808B5044B56
S31508004400420103EB40108188985802F069FF08BD05
S31508004410FCCD0008012070470246002008B10020A4
S31508004420704700EB8003044951F823309342F7D0D4
S31508004430431CD8B2F2E700BF1CCF000808B50448F1
S3150800444005F0A8FC034B1860003818BF012008BD0A
S3150800445054CF00086002002038B504460378244D7E
S3150800446003EB830305EB83034FF0FF31586805F030
S3150800447083FD237803EB830305EB8303D96841F0B7
S3150800448002011C4B186805F0D4FC237803EB830063
S31508004490A389A268616855F8200004F0F1F800289D
S315080044A00CBF0125002511D00020237810F0020F3B
S315080044B005F0010518BF002503EB83030C4A02EB40
S315080044C08303586805F087FD284638BD237803EB33
S315080044D08303074A02EB8303D9684FF0FF330022B0
S315080044E041F002010348006805F0C3FCDDE700BFA0
S315080044F01CCF00086002002008B5FFF78DFF00EB0F
S315080045008000044B03EB8003D968034B186805F059
S3150800451063FC08BD1CCF00086002002008B5FFF741
S315080045207BFF00EB8000044B03EB8003D968034B49
S31508004530186805F051FC08BD1CCF00086002002071
S3150800454008B5026E826DD26B436DDB6BFFF764FFB5
S315080045500221024B186805F03FFC08BD60020020E6
S3150800456000EE100AB8EEC00ADFED097A20EE270A37
S31508004570DFED087A60EE277A9FED077A77EE877A7D
S3150800458020EE270ADFED057A30EE670A704700BF8E
S3150800459000000039DB8A1F416DE76B4342E0754333
S315080045A010B52DED028B84B000238DF80F300A204C
S315080045B005F074FB012483E09DF80F3013F0010F1A
S315080045C026D013F0800F05D113F0400F05D04D4BC0
S315080045D0019322E04C4B01931FE013F0200F02D009
S315080045E0484B019319E013F0100F02D0454B019385
S315080045F013E013F0080F02D0424B01930DE013F0BD
S31508004600040F02D03F4B019307E03E4B019304E0B1
S3150800461013F0020F06D03B4B019300238DF80F30A1
S3150800462001245CE0374B0193F7E79DF80F3013F050
S31508004630010F26D013F0800F05D113F0400F05D0D7
S31508004640304B029322E0304B02931FE013F0200F09
S3150800465002D02C4B029319E013F0100F02D0294B0D
S31508004660029313E013F0080F02D0264B02930DE0D5
S3150800467013F0040F02D0234B029307E0214B029359
S3150800468004E013F0020F39D01E4B029300238DF875
S315080046900F300124DDED018AB0EE680A0820FFF725
S315080046A083F99DED028AB0EE480A0920FFF77CF9E6
S315080046B038EEC80A0A20FFF777F9642005F0EEFA03
S315080046C003AA0DF10F010020FFF78AFA04403FF410
S315080046D073AFBDF80C00FFF743FF8DED010A03AA7F
S315080046E00DF10F010120FFF77BFA04409DD0BDF8BC
S315080046F00C00FFF735FF8DED020ACBE7014B02935D
S31508004700C4E700BF7B9488C30040834508B5054AC3
S315080047100021054805F055FA044B1860003818BF03
S31508004720012008BD80CF0008A145000864020020CA
S3150800473008B504F0F7FCB0FA80F0400908BD70B57A
S3150800474005460E4605F0B2F9044610F4807F04D1FA
S315080047500120E4B2FF2C0ED070BD04F001FB044327
S31508004760A4B23146284605F0A1F9204380B2B0FA32
S3150800477080F04009EDE70020EEE7000010B502F0F2
S3150800478067FBB0FA80F46409024B186805F023FC4D
S31508004790204610BD6802002008B54FF0FF31054BD2
S315080047A0186805F0E9FB02F03BFBB0FA80F0400917
S315080047B008BD00BF6802002010B50B4805F093FB42
S315080047C00A4B1860041E18BF0124FFF7E5FF0440D2
S315080047D0002004F061FE002814BF002404F0010440
S315080047E0FFF7CCFF204010BDB0CF000868020020BC
S315080047F0014A024B9A6070470028000800ED00E065
S315080048002DE9F04188B00024039404940594069495
S315080048100794364BDA6C42F00402DA64DA6C02F07A
S3150800482004020092009ADA6C42F00102DA64DA6C49
S3150800483002F001020192019ADA6C42F00202DA648D
S31508004840DB6C03F002030293029B294F22464FF4C6
S315080048508041384602F03FFD22464FF480714FF002
S31508004860904002F038FD234D22466021284602F08A
S3150800487032FD4FF48043039301260496059406946B
S3150800488003A9384602F048FC4FF40048CDF80C80DE
S315080048900494059403A9384602F03EFC4FF480734D
S315080048A0039304960594069403A94FF0904002F0EA
S315080048B033FCCDF80C800494059403A94FF090407E
S315080048C002F02AFC982303930494059403A9284626
S315080048D002F022FC6023039304960594069403A928
S315080048E0284602F019FC08B0BDE8F0810010024025
S315080048F0000800480004004800B583B0164B9A6CBF
S3150800490042F001029A649A6C02F001020092009A3F
S315080049109A6C42F002029A649B6C03F002030193BC
S31508004920019B002205210C2001F0CCFE0C2001F091
S31508004930D9FE002205210D2001F0C4FE0D2001F04C
S31508004940D1FE002205213A2001F0BCFE3A2001F0F2
S31508004950C9FE03B05DF804FB0010024008B5FEF777
S3150800496029FD024B186805F08AF9FEE76C0200205B
S3150800497072B6FEE700B587B0002300930193029351
S315080049800393049305932F482F4A0260436083607C
S31508004990C36001220261082141610376427604213F
S315080049A0C16180F820308362C36280F83020436397
S315080049B080F838201C21C163802101644364826425
S315080049C000F080FC002832D1204B00930623019387
S315080049D0072302937F230393042304930023059359
S315080049E06946184800F0CEFE18BB194B00930C23F5
S315080049F001936946134800F0C5FEE0B9154B0093CC
S31508004A001223019369460F4800F0BCFEA8B9124B61
S31508004A1000931823019369460A4800F0B3FE70B95B
S31508004A207F21084801F0E4F907B05DF804FBFFF7B9
S31508004A309FFFFFF79DFFFFF79BFFFFF799FFFFF724
S31508004A4097FF00BF700400200000045040002019A2
S31508004A50000021438000501D0080F03E08B50D4837
S31508004A600D4B03602023436000238360C3604FF42B
S31508004A70402202614FF4A0024261037643768376B0
S31508004A800122C2760377437701F003FA00B908BD1D
S31508004A90FFF76EFF000400200064004000B58BB0ED
S31508004AA02422002101A807F0B6FE1048104B036027
S31508004AB001F0ABFE98B90022019202920392049289
S31508004AC0059201A9094801F0FBFE50B9002201A987
S31508004AD0064801F090FF30B90BB05DF804FBFFF70C
S31508004AE047FFFFF745FFFFF743FF00BFC803002056
S31508004AF00074004008B51048104B03604FF48273E9
S31508004B004360002383604FF4E062C26003610122C0
S31508004B1042614FF4007282613022C26103624362CD
S31508004B2083620722C2620363436303F039FD00B957
S31508004B3008BDFFF71DFF00BF00030020003001403D
S31508004B4008B51148114B0360114B4360002383607D
S31508004B500122C260036143618361C361036202F09B
S31508004B60C8FB50B90021084802F021FC38B90021D9
S31508004B70054802F04AFC20B908BDFFF7F9FEFFF721
S31508004B80F7FEFFF7F5FE00BF74030020005400404F
S31508004B90EC9C901008B50848084B03600623436050
S31508004BA040F6FF73C3609623836002F05AFC00B98F
S31508004BB008BDFFF7DDFE00BF64030020003000409B
S31508004BC008B50848084B0360002303714371436125
S31508004BD083610123036201F0A1FD00B908BDFFF757
S31508004BE0C7FE00BFDC0300200030024000B597B0C6
S31508004BF04422002105A807F00EFE00230093019326
S31508004C000293039304934FF4007002F06DFC30BBDB
S31508004C10092305934FF4A023069301230A9302233D
S31508004C200F93032210920422119210221292072245
S31508004C3013921493159305A802F040FD88B90F2323
S31508004C4000930323019300230293039304930421FF
S31508004C50684603F069F830B917B05DF804FBFFF74A
S31508004C6087FEFFF785FEFFF783FE000008B5FFF70E
S31508004C70BFFD00F0C3FAFFF7B9FFFFF7C1FDFFF765
S31508004C803BFEFFF777FEFFF7E9FEFFF707FFFFF7A3
S31508004C9031FFFFF755FFFFF77DFFFFF791FF04F0A0
S31508004CA04DFF054A0021054804F08BFF044B1860A8
S31508004CB004F056FFFEE700BFC8CF00085D490008AC
S31508004CC06C02002000B583B00D4B1A6E42F001024B
S31508004CD01A661A6E02F001020092009A9A6D42F064
S31508004CE080529A659B6D03F080530193019B0022C5
S31508004CF00F216FF0010001F0E5FC03B05DF804FB3D
S31508004D000010024070B59EB00446002119911A9110
S31508004D101B911C911D91542204A807F07CFD226862
S31508004D20334B9A4201D01EB070BD4FF480430493B2
S31508004D304FF04053169304A803F070F9002850D199
S31508004D402C4BDA6C42F40052DA64DA6C02F4005244
S31508004D500192019ADA6C42F00102DA64DA6C02F026
S31508004D6001020292029ADA6C42F00202DA64DB6C01
S31508004D7003F002030393039B062319930B261A9643
S31508004D8000251B9519A94FF0904002F0C5F9032399
S31508004D9019931A961B9519A9174802F0BDF91748D1
S31508004DA0174B036045608560C560802303614FF437
S31508004DB0807343614FF4806383612023C3614FF49A
S31508004DC00053036201F0BCFE70B90C4BE3649C62AD
S31508004DD000220521122001F075FC122001F082FC48
S31508004DE0A1E7FFF7C5FDABE7FFF7C2FDEDE700BF9B
S31508004DF00000045000100240000400482804002067
S31508004E003004024000B589B0002303930493059348
S31508004E10069307930268244B9A4202D009B05DF8BC
S31508004E2004FB03F5D6339A6D42F000729A659A6DC3
S31508004E3002F000720192019ADA6C42F00102DA6419
S31508004E40DB6C03F001030293029B4FF4C0530393F8
S31508004E5002230493032306930923079303A94FF018
S31508004E60904002F059F900220521132001F02AFC8E
S31508004E70132001F037FC00220521142001F022FC42
S31508004E80142001F02FFC00220521152001F01AFC40
S31508004E90152001F027FC00220521162001F012FC3E
S31508004EA0162001F01FFCB9E7006400400268094BB0
S31508004EB09A4200D0704782B0A3F500539A6C42F428
S31508004EC080529A649B6C03F480530193019B02B051
S31508004ED0704700BF0030024000B589B00023039335
S31508004EE004930593069307930268124B9A4202D0DD
S31508004EF009B05DF804FB03F5CE339A6D42F0005213
S31508004F009A659A6D02F000520192019ADA6C42F0A3
S31508004F100102DA64DB6C03F001030293029B10239F
S31508004F2003930323049303A94FF0904002F0F4F887
S31508004F30DEE700BF0074004010B59CB004460021AF
S31508004F401791189119911A911B91542202A807F0EA
S31508004F5062FC2268184B9A4201D01CB010BD40234F
S31508004F60029302A803F05AF818BB144CE36C43F0FA
S31508004F700103E364E36C03F001030093009B4FF421
S31508004F80C0631793122318930023199303231A93C4
S31508004F9004231B9317A94FF0904002F0BDF8A36DA8
S31508004FA043F40013A365A36D03F400130193019B57
S31508004FB0D3E7FFF7DDFCD8E70054004000100240B5
S31508004FC010B588B0002303930493059306930793BB
S31508004FD002682F4B9A4201D008B010BD044603F56B
S31508004FE060431A6E42F480521A661A6E02F48052B0
S31508004FF00192019ADA6C42F00102DA64DB6C03F082
S3150800500001030293029BE0230393022304930323E1
S3150800501006930523079303A94FF0904002F07CF806
S315080050201C481D4B03600123436000238360C36053
S315080050308022026143618361C361036201F080FDDE
S3150800504000BB144BA3659C621448154B03600123EF
S315080050504360102383600023C3608022026143619A
S315080050608361C361036201F06BFD70B90B4B636525
S315080050709C6200220521232001F024FB232001F055
S3150800508031FBA9E7FFF774FCDBE7FFF771FCEDE7F7
S3150800509000300140B80200201C00024070020020C7
S315080050A030000240FEE7FEE7FEE7FEE7FEE7704750
S315080050B008B500F0B3F806F0DDFC012800D108BDFC
S315080050C007F078F9FBE7000008B5024801F01FFE73
S315080050D008BD00BFB802002008B5024801F017FE57
S315080050E008BD00BF7002002008B5024800F0DEF9CE
S315080050F008BD00BF7004002008B5024801F057F942
S3150800510008BD00BF0004002008B5024801F04FF9A9
S3150800511008BD00BF0004002008B5024801F047F9A1
S3150800512008BD00BF0004002008B5024801F03FF999
S3150800513008BD00BF0004002008B5024803F02EFC95
S3150800514008BD00BF0003002008B5024801F0DFFDD6
S3150800515008BD00BF280400200E4AD2F8883043F460
S315080051607003C2F888300C4B1A6842F001021A60C4
S31508005170002199601A6822F0A85222F410221A60B7
S315080051804FF48052DA601A6822F480221A60996114
S31508005190704700BF00ED00E00010024008B50B465E
S315080051A00146184607F0BCFB08BD0000104B1B78EB
S315080051B00BB90120704710B504464FF47A70B0FB5E
S315080051C0F3F30C4A1068B0FBF3F001F093FA68B9F0
S315080051D00F2C01D901200AE0002221464FF0FF30AA
S315080051E001F070FA044B1C60002000E0012010BD9D
S315080051F098000020940000209C00002010B5032091
S3150800520001F04EFA0F20FFF7D1FF10B10124204616
S3150800521010BD0446FFF756FDF9E70000034B1B785F
S31508005220034A11680B441360704700BF98000020BA
S31508005230D4040020014B1868704700BFD40400202E
S3150800524038B50446FFF7F6FF0546B4F1FF3F02D02E
S31508005250044B1B781C44FFF7EDFF401BA042FAD312
S3150800526038BD00BF9800002010B430300B0A9B00F0
S3150800527003F00C03C45801F01F014FF01F0C0CFA81
S3150800528001FC24EA0C0CC2F384628A404CEA02024E
S31508005290C2505DF8044B704710B414304B0E9B0097
S315080052A003F00403C458C1F304514FF0070C0CFA79
S315080052B001FC24EA0C0C8A404CEA0202C2505DF852
S315080052C0044B704730B583B000230193002800F0E3
S315080052D0DA800446436D13B323689A6812F0005FB8
S315080052E005D09A6822F0204222F03F029A6022688E
S315080052F0936813F0805F1FD1936823F0104323F05F
S315080053003F0343F080539360604B1B689B09604AD8
S31508005310A2FB03239B0901335B00019309E0FFF716
S31508005320F1FC0023A36584F85030D5E7019B013BC7
S315080053300193019B002BF9D12268936813F0805FD3
S3150800534078D1636D43F010036365A36D43F00103E1
S31508005350A3650120936813F0040300D00123616D4F
S3150800536011F0100F40F08880002B40F08580636DA7
S3150800537023F4817343F002036365936813F0010F06
S315080053800BD1444B9B6813F0010F06D16368424961
S315080053908A6822F47C1213438B60627E636B43EA4D
S315080053A04233E2681343A268134394F8202043EA81
S315080053B00243012A40D0A26A22B102F47072E16A5D
S315080053C00A4313432168CD68344A2A401A43CA60FF
S315080053D021688B6813F0040300D001238A6812F051
S315080053E0080200D00122B3B9AAB9237E94F8302066
S315080053F0520042EA8332CB6823F4804323F0020347
S315080054001343CB6094F83830012B1AD022681369FD
S3150800541023F0010313612369012B24D02268136B3F
S3150800542023F00F031363636D23F0030343F00103B3
S31508005430636526E000208DE7626A013A43EA424343
S31508005440B9E721680B6923F4FF6323F00403E26BD1
S31508005450256C2A43656C2A43A56C2A43134343F0FB
S3150800546001030B61D7E721680B6B23F00F03E26991
S31508005470013A13430B63D6E7636D43F01003636584
S31508005480012003B030BD0120FBE700BF94000020D7
S31508005490632D3E05000004500003045007C0F0FFCA
S315080054A008B5806AFEF748FD08BD704770B5044622
S315080054B003681E685D6816F0020F10D015F0020F1B
S315080054C00DD0436D13F0100F03D1436D43F4006301
S315080054D04365204600F0DCFC236802221A6016F0B9
S315080054E0040F02D015F0040F05D116F0080F3AD0B4
S315080054F015F0080F37D0636D13F0100F03D1636DE5
S3150800550043F4007363652368DA6812F4406F24D1A4
S31508005510DA6812F4005F20D11A6812F0080F1CD05E
S315080055209A6812F0040F10D15A6822F00C025A60D9
S31508005530636D23F480736365636D13F4805F0CD128
S31508005540636D43F00103636507E0636D43F0100381
S315080055506365A36D43F00103A3652046FEF7E2FCED
S3150800556023680C221A6016F0200F02D015F0200FBF
S3150800557005D116F0400F4CD015F0400F49D0636D99
S3150800558013F0100F03D1636D43F40053636523686A
S31508005590DA6C12F0C00F2AD10121DA6812F4406FD2
S315080055A027D10120DA6871B312F0007F03D050B317
S315080055B012F4005F27D1196811F0400F23D012F4B6
S315080055C0001F20D19A6812F0080F14D15A6822F0E9
S315080055D060025A60636D23F480536365636D13F448
S315080055E0807F10D1636D43F0010363650BE00021F2
S315080055F0D3E70020D6E7636D43F010036365A36D18
S3150800560043F00103A365204600F03EFC23686022B0
S315080056101A6016F0800F02D015F0800F2DD116F4FF
S31508005620807F02D015F4807F32D116F4007F02D035
S3150800563015F4007F38D116F0100F17D015F0100F9B
S3150800564014D0636B23B12368DB6813F0010F0AD00B
S31508005650636D43F480636365A36D43F00203A3653A
S315080056602046FEF773FC236810221A6016F4806F32
S3150800567002D015F4806F23D170BD636D43F4803377
S3150800568063652046FFF711FF236880221A60C6E784
S31508005690636D43F400336365204600F0F7FB236827
S315080056A04FF480721A60C0E7636D43F48023636524
S315080056B0204600F0ECFB23684FF400721A60BAE744
S315080056C0636D43F480436365A36D43F00803A365E4
S315080056D023684FF480621A60204600F0D6FBCBE7B9
S315080056E008B50346806A426D12F0500F30D1436DFB
S315080056F043F40073436503681A6812F0080F14D060
S31508005700DA6812F4406F20D1DB6813F4005F1CD10D
S31508005710436D23F480734365436D13F4805F14D19E
S31508005720436D43F0010343650FE0DB6813F0020F96
S315080057300BD1436D23F480734365436D13F4805F87
S3150800574003D1436D43F001034365FEF7EBFB08BD48
S31508005750426D12F0100F04D1C26C526B1846904776
S31508005760F5E7FEF7F3FBF2E708B5806A436D43F009
S3150800577040034365836D43F004038365FEF7E6FB48
S3150800578008BD0000F0B583B00023019390F85030AF
S31508005790012B00F00A8204460D46012380F850309A
S315080057A003689B6813F0040F09D0436D43F0200388
S315080057B043650120002384F8503003B0F0BD4B68E0
S315080057C0052B08D8023B032B56D8DFE803F0024B1B
S315080057D04E510C234B602A6869682068FFF744FD20
S315080057E02068836813F0040300D00123826812F04E
S315080057F0080200D001220BB9002A40D0226893681B
S3150800580013F0010F17D12B68E868D2F8B010C3F36C
S31508005810120621EA060100F0180CAA4820FA0CF034
S315080058200340C3F312030B43C2F8B030EA68A64B31
S315080058309A4200F0A9802B68A44A134200F0B1816D
S31508005840A34A926802F0E070A2498B4200F05B819D
S31508005850A1498B4200F07E81A0498B4200F08E81DF
S315080058600020A7E712234B60B5E718234B60B2E781
S315080058704FF480734B60AEE706234B60ABE7AA682C
S315080058802968FFF709FD69692268D368C3F3C1036C
S315080058905B009940286904280ED02E68603252F8B9
S315080058A020708F4B3B4006F0F84631430B4343F0DC
S315080058B0004342F82030A1E7136E116EC1F38461EC
S315080058C02B68C3F3120080BBC3F38463994234D0B8
S315080058D021684B6E4A6EC2F384622B68C3F31200CA
S315080058E080BBC3F384639A4234D021688B6E8A6E78
S315080058F0C2F384622B68C3F3120080BBC3F38463CC
S315080059009A4234D02168CB6ECA6EC2F384622B6881
S31508005910C3F3120080BBC3F384639A427FF46EAF6D
S31508005920CB6E23F00043CB6668E793FAA3F313B173
S31508005930B3FA83F3CAE72023C8E7136E23F00043BC
S315080059401366C5E793FAA3F313B1B3FA83F3CAE769
S315080059502023C8E74B6E23F000434B66C5E793FA4E
S31508005960A3F313B1B3FA83F3CAE72023C8E78B6E10
S3150800597023F000438B66C5E793FAA3F313B1B3FA92
S3150800598083F3CAE72023C8E720682B68C3F3120607
S315080059903EBB9A0E013202F01F02092A8CBF002272
S315080059A00122002A55D05EBB990E0131890601F005
S315080059B0F8418EBB4FEA936C0CF1010C0CF01F0CEE
S315080059C0012202FA0CF21143AEBB9B0E013303F01F
S315080059D01F0303EB43031B051943AA68FFF75CFC87
S315080059E029E793FAA3F24AB1B2FA82F2013202F037
S315080059F01F02092A8CBF00220122D2E72022F5E7DE
S31508005A0093FAA3F131B1B1FA81F10131890601F0B6
S31508005A10F841CEE72021F8E793FAA3F24AB1B2FAA1
S31508005A2082F2013202F01F024FF0010C0CFA02F268
S31508005A30C9E72022F5E793FAA3F343B1B3FA83F350
S31508005A40013303F01F0303EB43031B05C4E72023BD
S31508005A50F6E7E6B9990E0131890601F0F84116BB59
S31508005A604FEA936C0CF1010C0CF01F0C012202FAA0
S31508005A700CF21143B6BB9B0E013303F01F0303EB75
S31508005A8043031E3B1B0543F000731943A5E793FA2E
S31508005A90A3F131B1B1FA81F10131890601F0F8417A
S31508005AA0DDE72021F8E793FAA3F24AB1B2FA82F2C7
S31508005AB0013202F01F024FF0010C0CFA02F2D8E78D
S31508005AC02022F5E7FFFF070000007F40000008805E
S31508005AD000030450000052C7000084CB0100008078
S31508005AE000F0FF0393FAA3F35BB1B3FA83F3013330
S31508005AF003F01F0303EB43031E3B1B0543F0007330
S31508005B00C3E72023F3E712F4000F7FF4A1AE22685F
S31508005B10274B9A4201D000204CE640F40003254961
S31508005B208A6822F0E07213438B60234B1B689B093B
S31508005B30224AA2FB03239B09013303EB43039B0081
S31508005B40019302E0019B013B0193019B002BF9D1D4
S31508005B5000202FE612F0807F7FF47EAE2268144B79
S31508005B609A4201D0002025E640F0807311498A68E0
S31508005B7022F0E07213438B6000201BE612F4800FBC
S31508005B8011D122680A4B9A4201D0002012E640F44D
S31508005B90800308498A6822F0E07213438B6000206C
S31508005BA008E6002006E6002004E6022005E600BF17
S31508005BB0000004500003045094000020632D3E05A5
S31508005BC030B583B00023019303689A6812F0010F79
S31508005BD058D1044699682D4A114219D19A6822F07B
S31508005BE0004222F03F0242F001029A60284B9B686D
S31508005BF013F4000F1CD0274B1B689B09264AA2FBEF
S31508005C0003239B09013303EB43039B0001930CE039
S31508005C10436D43F010034365836D43F001038365C9
S31508005C20012030E0019B013B0193019B002BF9D138
S31508005C30FFF700FB054623681A6812F0010F1FD10B
S31508005C409A6812F0010F07D19A6822F0004222F0F2
S31508005C503F0242F001029A60FFF7ECFA431B022B5F
S31508005C60E9D923681B6813F0010FE4D1636D43F08B
S31508005C7010036365A36D43F00103A365012002E0E9
S31508005C80002000E0002003B030BD00BF3F000080C8
S31508005C900003045094000020632D3E0570B50446A9
S31508005CA00068806810F0040F4ED10E46154694F829
S31508005CB05030012B4AD0012384F850302046FFF794
S31508005CC07FFF00283CD1636D23F4706323F0010342
S31508005CD043F480736365636D13F4805F2DD0A36D01
S31508005CE023F00603A365E36C194ADA62E36C194AE2
S31508005CF01A63E36C184A5A6323681C221A60002345
S31508005D0084F850302268536843F0100353602268C1
S31508005D10D36843F00103D36021682B4632464031ED
S31508005D20E06C00F091FF2268936823F0004323F0AB
S31508005D303F0343F00403936007E00023A365D2E71B
S31508005D40002384F8503000E0022070BD0220FCE7F2
S31508005D50E1560008A15400086957000838B50446FA
S31508005D600268936813F0020300D00123916811F0CA
S31508005D70010F39D0002B39D1936803F00D03012B9D
S31508005D8009D0636D43F010036365A36D43F0010307
S31508005D90A365012029E0936823F0004323F03F031D
S31508005DA043F002039360236803221A60FFF742FA5E
S31508005DB0054623689B6813F0010F13D0FFF73AFADC
S31508005DC0401B0228F5D923689B6813F0010FF0D011
S31508005DD0636D43F010036365A36D43F00103A36588
S31508005DE0012002E0002000E0002038BD0020FCE78A
S31508005DF030B583B00023019390F85030012B41D081
S31508005E0004460D46012380F85030FFF7A7FF80BBF4
S31508005E10636D23F4885323F0020343F0020363659A
S31508005E202268936823F0404323F03F0305F080453A
S31508005E302B4343F00043936023689B68002B06DBE3
S31508005E40636D23F0030343F00103636515E0019BCB
S31508005E5001330193019BB3F5912FEDD3636D23F0C5
S31508005E60120343F010036365002384F850300120C1
S31508005E7006E0636D43F010036365002384F8503031
S31508005E8003B030BD0220FBE7704770477047704784
S31508005E907047002800F0A18038B5044690F82030F5
S31508005EA0D3B12268136843F001031360FFF7C2F900
S31508005EB0054623685A6812F0010F10D1FFF7BAF9A0
S31508005EC0401B0A28F5D9636A43F400336362052345
S31508005ED084F82030012038BDFEF794FFE1E71A6800
S31508005EE022F002021A60FFF7A5F9054623685A68E8
S31508005EF012F0020F0DD0FFF79DF9401B0A28F5D9BD
S31508005F00636A43F400336362052384F82030012072
S31508005F10E1E7227E012A3DD01A6822F080021A6043
S31508005F20637E012B3BD02268136823F0400313607D
S31508005F30A37E012B39D02268136823F0200313604F
S31508005F40E37E012B37D02268136843F010031360F1
S31508005F50237F012B35D02268136823F008031360CA
S31508005F60637F012B33D02268136823F00403136080
S31508005F70A368E2681343226913436269134362689C
S31508005F80013A21681343CB6100206062012384F83B
S31508005F902030A0E71A6842F080021A60C0E722683B
S31508005FA0136843F040031360C2E72268136843F09E
S31508005FB020031360C4E72268136823F010031360F4
S31508005FC0C6E72268136843F008031360C8E7226827
S31508005FD0136843F004031360CAE701207047026898
S31508005FE090F82030013BDBB2012B05D9436A43F414
S31508005FF0802343620120704730B4D2F8003243F060
S315080060000103C2F800324B6903F01F03012000FAAE
S3150800601003F3D2F81C026FEA030C20EA0300C2F865
S315080060201C02C869B0B9D2F80C020CEA0000C2F822
S315080060300C028C884869CD6844EA0544483042F821
S3150800604030400C8848698D6844EA0544483002EBBC
S31508006050C0004460C86901281BD0886980BBD2F893
S3150800606004020CEA0000C2F80402086970BBD2F800
S3150800607014020CEA0000C2F81402096A01292BD09E
S31508006080D2F8003223F00103C2F80032002030BCF7
S315080060907047D2F80C021843C2F80C028C8848697B
S315080060A00D6844EA0544483042F830408C8948690E
S315080060B08D6844EA0544483002EBC0004460CCE7EA
S315080060C0D2F804021843C2F80402CEE7D2F8140242
S315080060D01843C2F81402D0E7D2F81C120B43C2F8D0
S315080060E01C32CDE770B5044690F82050EDB2012D6C
S315080060F006D0436A43F4002343620125284670BD4F
S31508006100022380F820300268136823F00103136025
S31508006110FFF790F8064623685B6813F0010F0CD06A
S31508006120FFF788F8831B0A2BF5D9636A43F4003313
S315080061306362052384F82030E0E700256562DDE721
S3150800614030B590F820C00468A4680CF1FF3C5FFAEB
S315080061508CFCBCF1010F62D814F0E05F59D0C4F38F
S31508006160016C012404FA0CF41C608B68002B3DD1E9
S315080061700D68CB68046843EA45550CF118031B0102
S31508006180E55003680C690CF1180E03EB0E135C60FE
S315080061900B7D012B35D0D17993791B0443EA016332
S315080061A0517943EA012314790168234301EB0C1161
S315080061B0C1F88C31D17893781B0443EA016351788E
S315080061C043EA0123117802680B4302EB0C12C2F86A
S315080061D0883102680CF1180C4FEA0C1C52F80C3086
S315080061E043F0010342F80C3000201DE04C6843EAF6
S315080061F0C403CC6823430CF11804240105682B5109
S31508006200BFE7036803EB0E13596841F480715960C0
S31508006210C1E7436A43F400134362012004E0436A7A
S3150800622043F480234362012030BD90F820C00CF16E
S31508006230FF3C5FFA8CFCBCF1010F00F2958030B48C
S3150800624051B90468E46814F0030F10D1436A43F4A3
S3150800625000134362012077E00468246914F0030FF1
S3150800626005D1436A43F40013436201206CE001F14F
S315080062701B04240105682C5904F004049460002CBE
S3150800628064D101F11B04240105682C59640D1460BE
S31508006290046801F11B0C4FEA0C1C54F80C4004F07E
S315080062A00204D46004686444646804F00F0414614A
S315080062B0046864446468C4F3072494610468644405
S315080062C06468240C5461026802EB0112D2F8B82102
S315080062D01A70026802EB0112D2F8B821C2F307223B
S315080062E05A70026802EB0112D2F8B821C2F30742CB
S315080062F09A70026802EB0112D2F8B821120EDA700F
S31508006300026802EB0112D2F8BC211A71026802EB8C
S315080063100112D2F8BC21C2F307225A71026802EBB5
S315080063200112D2F8BC21C2F307429A71026802EB45
S315080063300112D2F8BC21120EDA7179B90268D36853
S3150800634043F02003D360002030BC704701F11B04E2
S31508006350240105682C59E408546099E70268136912
S3150800636043F020031361EEE7436A43F48023436254
S315080063700120704790F82030013BDBB2012B05D98C
S31508006380436A43F4802343620120704702685369D5
S315080063900B4353610020704770477047704770473A
S315080063A070477047704770477047704770472DE9C8
S315080063B0F84F054603685C69D3F804809F68D3F8EC
S315080063C00CB0D3F810A0D3F8189014F001063BD0FF
S315080063D017F0010616D001229A6017F0020F08D1AD
S315080063E017F0040F0CD117F0080606D04FF48056A4
S315080063F008E0FFF7D1FF002604E0FFF7D0FF01E031
S315080064004FF4006617F4807F0DD02B684FF4807226
S315080064109A6017F4007F40F0868017F4806F00F0CA
S31508006420868046F4005617F4803F0DD02B684FF44B
S3150800643080329A6017F4003F40F0838017F4802F6B
S3150800644000F0838046F4004614F0080F07D01BF0CE
S31508006450100F04D046F400762B681022DA6014F088
S31508006460040F02D01BF0080F79D114F0020F04D0E4
S315080064702B68DB6813F0030F78D114F0400F07D0B0
S315080064801AF0100F04D046F480662B6810221A61A1
S3150800649014F0200F02D01AF0080F6BD114F0100F69
S315080064A004D02B681B6913F0030F6AD114F4003F5C
S315080064B002D018F0100F68D114F4803F02D018F0FB
S315080064C0080F69D114F4004F7AD018F0040F74D06D
S315080064D014F4807F04D019F0010F01D046F00106AC
S315080064E014F4007F04D019F0020F01D046F002061A
S315080064F014F4806F04D019F0040F01D046F0040696
S3150800650014F4006F59D019F0700956D0B9F1400F3C
S3150800651065D058D8B9F1200F5ED0B9F1300F42D105
S3150800652046F0200644E02846FFF737FF7BE717F4D6
S31508006530006F02D046F4804675E72846FFF730FF1D
S3150800654071E72846FFF72AFF7EE717F4002F02D0E7
S3150800655046F4803678E72846FFF723FF74E72B686A
S315080065600822DA602846FFF71DFF7EE72846FDF772
S3150800657077FE82E72B6808221A612846FFF714FF80
S315080065808CE72846FFF70FFF90E72B6810225A6022
S315080065902846FFF70AFF8FE72B6808225A60284625
S315080065A0FFF704FF8EE7B9F1100F01D146F0080690
S315080065B02A68936923F0700393612B6804225A6052
S315080065C09EB9BDE8F88FB9F1500F0BD0B9F1600F3D
S315080065D0EED146F48076EBE746F01006E8E746F09B
S315080065E04006E5E746F08006E2E76B6A33436B62EE
S315080065F02846FDF757FEE4E7002807DB00F01F02F0
S31508006600400901239340024A42F82030704700BFF0
S3150800661000E100E0002808DB0901C9B200F160408A
S3150800662000F5614080F80013704700F00F0009017B
S31508006630C9B2014B1954704714ED00E000B500F0DB
S315080066400700C0F1070CBCF1040F28BF4FF0040C7B
S31508006650031D062B0FD9C31E4FF0FF3E0EFA0CF092
S3150800666021EA000199400EFA03FE22EA0E0241EAE7
S3150800667002005DF804FB0023EEE70000BFF34F8F2E
S315080066800549CA6802F4E062044B1343CB60BFF3C2
S315080066904F8F00BFFDE700BF00ED00E00400FA05DC
S315080066A0074AD36823F4E0631B041B0C000200F4BA
S315080066B0E060034343F0BF6343F40033D36070479D
S315080066C000ED00E010B50446054BD868C0F302207B
S315080066D0FFF7B4FF01462046FFF79CFF10BD00BF39
S315080066E000ED00E008B5FFF787FF08BD08B5FFF71E
S315080066F0C5FF00000138B0F1807F0BD24FF0E023D0
S315080067005861054AF02182F8231000209861072273
S315080067101A6170470120704700ED00E0002838D064
S3150800672010B50446437F1BB30223637723791BBB4B
S315080067302368194A5A612268936823F018039360FC
S31508006740637913BB23684FF0FF321A612268936896
S3150800675023F0600361690B4393602268936823F012
S315080067608003A1690B43936001236377002010BD62
S315080067700377FEF79BFBD7E7E268A168204600F09F
S315080067800DF80028DCD00120F1E7236822691A6198
S31508006790DCE70120704700BFB71DC10410B41F23F2
S315080067A01C46013B34B103F01F0C21FA0CFC1CF00B
S315080067B0010FF5D0182A22D8DFE802F00F2121218F
S315080067C0212121211D2121212121212119212121B7
S315080067D0212121210D00062B15D80368596101686E
S315080067E08B6823F0180313438B60002008E0072BFF
S315080067F0F3D9012004E00F2BEFD9012000E0012096
S315080068005DF8044B70470120FAE770B110B50446ED
S31508006810037933B1022323710020206101232371F8
S3150800682010BD4371FEF758FBF4E701207047427923
S31508006830012A2CD010B40346012242710220187195
S315080068401C68206801F0100C02FA0CF20243226060
S3150800685089B919680A6802F03C02042A06D001229E
S315080068601A71002058715DF8044B70474A6842F067
S3150800687001024A60F3E719680A6802F47012B2F571
S31508006880802FECD14A6842F002024A60E7E702200C
S31508006890704710B483B0002401940068019051B980
S315080068A001990A4408320192019A1360002003B044
S315080068B05DF8044B704701990A4414320192F3E7D4
S315080068C0F8B54379012B00F0948004460D46164628
S315080068D001234371022303710B68042B32D02B6901
S315080068E0012B79D02068C16B06F01002072393406C
S315080068F021EA03012B68AE683343EE6833439340BD
S315080069000B43C363206803684FF48041914023EA30
S31508006910010303602068016840F6FC73934021EA8E
S3150800692003016B6893400B43036020680368C0212A
S3150800693001FA02F223EA020303600123237100200D
S315080069406071F8BDFEF776FC07467EB123685B6B7F
S31508006950002B3ADAFEF76EFCC01B0128F6D923692C
S3150800696043F00803236103202071EAE723685B6B81
S3150800697013F4004F0BD0FEF75DFCC01B0128F5D9B8
S31508006980236943F00803236103202071D9E7012016
S31508006990FEF756FC2368AA691A642068836C06F019
S315080069A0100240F2FF31914023EA0103E969914060
S315080069B00B4383642068C36CFF21914023EA0103DB
S315080069C0296A91400B43C36489E70120FEF738FC26
S315080069D02368AA695A64E0E721688A6B06F0100002
S315080069E01F23834022EA03026B69834013438B63A8
S315080069F078E70220A5E7002800F083802DE9F04F0C
S31508006A0083B0894604460379DBB2022B7BD04379EF
S31508006A10012B7AD0012141710068C56B02F010077D
S31508006A200723BB4005EA030B0568B94025EA0101BF
S31508006A3001602068C16B6FEA030A21EA0303C36396
S31508006A402368019392B9019B08330193019B4FF484
S31508006A5000621A60226813684FF4804808FA07F83B
S31508006A6043EA080313600825102605E0019B143342
S31508006A700193EBE72E446D089DB121688B6B1F22AD
S31508006A80BA4023EA020306FA07F213438B6301208E
S31508006A90FEF7D6FB23685B6B38EA0303EAD1761B5D
S31508006AA0E9E721688B6B1F22BA40D54323EA020324
S31508006AB006FA07F213438B630120FEF7C1FB23682E
S31508006AC05A6B18EA020F06D101369A6B154006FA78
S31508006AD007F73D439D632268136823EA080313609A
S31508006AE0C9F814600123C9F810302268D36B0AEA82
S31508006AF0030A4AEA0B03D3630020607103B0BDE8BA
S31508006B00F08F012070470120F8E70220F6E730B43D
S31508006B10446C04F01C0C012404FA0CF4056C6C603B
S31508006B20046863608368102B05D00368996003685E
S31508006B30DA6030BC704703689A600368D960F8E782
S31508006B40002873D010B403460068394A90424AD8E0
S31508006B50384A02443849A1FB0212120992005A64C3
S31508006B60364A1A64022283F82520016821F4FF4177
S31508006B7021F070019A68DC6822431C6922435C692B
S31508006B8022439C692243DC6922431C6A22430A4346
S31508006B9002609A68B2F5804F1BD0196C274A914259
S31508006BA02CD0264AD2F8A814586C00F01C0C0F20DA
S31508006BB000FA0CF021EA0001C2F8A814D2F8A814C9
S31508006BC058685C6C04F01C0C00FA0CF00143C2F81F
S31508006BD0A8140020D863012283F8252083F824000E
S31508006BE05DF8044B7047164A02441349A1FB02128A
S31508006BF0120992005A64134A1A64B3E7D2F8A81025
S31508006C00586C00F01C0C0F2000FA0CF021EA000169
S31508006C10C2F8A810D2F8A81058685C6C04F01C0CCE
S31508006C2000FA0CF00143C2F8A810D2E70120704719
S31508006C3007040240F8FFFDBFCDCCCCCC00000240D3
S31508006C40F8FBFDBF0004024038B5044690F824005E
S31508006C50012832D0012084F8240094F82500C0B217
S31508006C60012804D0002384F82430022038BD0220ED
S31508006C7084F825000020E0632568286820F00100D4
S31508006C8028602046FFF743FF236B5BB12268136831
S31508006C9043F00E0313602268136843F00103136080
S31508006CA00020E3E72268136823F0040313602268D0
S31508006CB0136843F00A031360EDE70220D6E708B528
S31508006CC090F82530DBB2022B03D00423C3630120DE
S31508006CD008BD0268136823F00E0313600268136880
S31508006CE023F001031360436C03F01C03016C0122BB
S31508006CF002FA03F34B6080F82520002380F824303D
S31508006D00836B13B198470020E2E70020E0E738B527
S31508006D10036C196804682568436C03F01C03042295
S31508006D209A400A4215D015F0040F12D0236813F0C2
S31508006D30200F03D1236823F004032360436C03F078
S31508006D401C02016C042393404B60036B03B1984704
S31508006D5038BD02229A400A421CD015F0020F19D0FB
S31508006D60236813F0200F06D1236823F00A03236053
S31508006D70012380F82530436C03F01C02016C0223C2
S31508006D8093404B60002380F82430C36A002BDFD081
S31508006D909847DDE7082202FA03F30B42D8D015F02C
S31508006DA0080FD5D0236823F00E032360436C03F045
S31508006DB01C03016C012202FA03F34B60C26380F8DC
S31508006DC02520002380F82430436B002BC0D0984739
S31508006DD0BEE7000010B4064C616941F0010161612B
S31508006DE00260BFF36F8F43605DF8044B704700BFC6
S31508006DF000200240094A536943F480235361EFF3A4
S31508006E00108C72B6402351F8042B40F8042B013B32
S31508006E1013F0FF03F7D18CF3108870470020024067
S31508006E20094B5B69002B01DB00207047064B074ABC
S31508006E309A6002F188329A605B69002B01DB0020B8
S31508006E4070470120704700BF0020024023016745B4
S31508006E50034A536943F0004353610020704700BF5B
S31508006E600020024038B50446FEF7E4F90546144BFF
S31508006E701B6913F4803F09D0B4F1FF3FF7D0FEF742
S31508006E80D9F9401BA042F2D3032015E00C4B1B692D
S31508006E900C4A134009D10A4B1B6913F0010F0CD099
S31508006EA0074B01221A61002006E007494A681A437F
S31508006EB04A60034A1361012038BD0020FCE700BF81
S31508006EC000200240FAC30200A00000202DE9F0418C
S31508006ED01646284A1278012A49D004460D4698468D
S31508006EE0244B01221A704CF25030FFF7BBFF0746BD
S31508006EF008BB204B00225A601F4B1B6813F4806F97
S31508006F001FD01D4A136823F480631360194B0222AD
S31508006F101A77D4B1631E012B1ED900244CF25030C7
S31508006F20FFF7A0FF074624B1134A536923EA04036F
S31508006F30536100F047F80F4B00221A703846BDE837
S31508006F40F0810C4B00221A77E3E73246434628467F
S31508006F50FFF740FF0124E1E731462846FFF74AFFDD
S31508006F60022C01D00024D9E74FF48024D6E7022763
S31508006F70E4E700BFA00000200020024010F0010F47
S31508006F8004D0054A536943F004035361024A53691E
S31508006F9043F480335361704700200240084B5A6916
S31508006FA022F47E72C00000F4FF6002435A615A69F7
S31508006FB042F002025A615A6942F480325A617047B5
S31508006FC000200240164B1B7FDBB2012B01D0032B9E
S31508006FD010D1144A116821F400711160116841F446
S31508006FE000611160116821F400611160116841F4B3
S31508006FF000711160023BDBB2012B03D9084B00225A
S315080070001A777047074B1A6842F480521A601A6852
S3150800701022F480521A601A6842F480621A60EDE718
S31508007020A000002000200240F8B5394B1B78012B40
S315080070306BD004460E46364B01221A704CF250307D
S31508007040FFF710FF074600285AD1314B00225A6035
S31508007050304B1B6813F4007F2FD02E4B1B6813F49C
S31508007060806F26D02B4A136823F480631360284B5D
S3150800707003221A772368012B31D04FF0FF33336090
S31508007080A568A368E2681344AB4237D96168284605
S31508007090FFF784FF4CF25030FFF7E4FE1D4A5369B0
S315080070A023F47E7323F002035361074628BB013598
S315080070B0E7E7174B01221A77DCE7164B1B6813F430
S315080070C0806F08D0134A136823F480631360104B4B
S315080070D002221A77CEE70E4B00221A77CAE76068B3
S315080070E0FFF74CFF4CF25030FFF7BCFE0746094A43
S315080070F0536923F00403536100E03560FFF762FF2C
S31508007100034B00221A703846F8BD0227FBE700BF7A
S31508007110A000002000200240F0B583B0002362E002
S3150800712085685E000324B44025EA0405CC68B440AB
S315080071302C438460456825EA0C054C68C4F30014A2
S315080071409C402C4344605FE0DD08083550F8254034
S3150800715003F0070C4FEA8C0C4FF00F0E0EFA0CFEDC
S3150800716024EA0E0E0C6904FA0CF444EA0E0440F8FC
S31508007170254060E0022400E0002404FA0EF42C43C3
S315080071800CF1020C4C4D45F82C404C4CA568D443E8
S3150800719025EA02064F6817F4801F01D042EA050661
S315080071A0464DAE60ED6804EA05064F6817F4001F01
S315080071B001D042EA0506414DEE606D6804EA05060F
S315080071C04F6817F4003F01D042EA05063B4D6E6052
S315080071D02D682C404E6816F4803F01D042EA05041B
S315080071E0364A146001330A6832FA03F462D04FF063
S315080071F0010C0CFA03FC1CEA0202F3D04C6804F0FA
S315080072000304013C012C8BD94C6804F00304032CBD
S315080072100CD0C4685D004FF0030C0CFA05FC24EA98
S315080072200C0C8C68AC4044EA0C04C4604C6804F04E
S315080072300304022C88D004684FEA430E4FF0030C6F
S315080072400CFA0EFC24EA0C0C4C6804F0030404FA4D
S315080072500EF444EA0C0404604C6814F4403FC1D0B0
S31508007260174C256E45F001052566246E04F00104C9
S315080072700194019C4FEA930C0CF102050E4C54F84C
S31508007280255003F0030E4FEA8E0E0F2404FA0EF46F
S3150800729025EA0405B0F1904F3FF46EAF094CA042C1
S315080072A006D004F58064A0423FF464AF072464E77F
S315080072B0012462E703B0F0BD00000140000401406C
S315080072C000100240000400480369194201D0012059
S315080072D07047002070470AB1816170478162704724
S315080072E0436901EA030221EA030141EA0241816195
S315080072F07047002859D010B5044690F84130002B45
S3150800730043D0242384F841302268136823F001030C
S3150800731013606368226823F07063136122689368B8
S3150800732023F400439360E368012B33D0A3682268F3
S3150800733043F404439360E368022B31D02268536810
S3150800734043F0007343F4004353602268D36823F480
S315080073500043D360236962691343A169226843EA3B
S315080073600123D360E369216A22680B43136022680C
S31508007370136843F00103136000206064202384F837
S315080073804130206384F8420010BD80F84030FDF794
S31508007390D3FDB6E7A368226843F400439360CAE7BF
S315080073A023684FF400625A60C8E701207047034615
S315080073B090F84120D2B2202A23D190F84020012A01
S315080073C021D0012280F84020242280F8412000683C
S315080073D0026822F0010202601868026822F48052EC
S315080073E00260186802681143016019680A6842F069
S315080073F001020A60202283F84120002083F8400019
S3150800740070470220704702207047034690F84120D3
S31508007410D2B2202A21D190F84020012A1FD0012279
S3150800742080F84020242280F841200068026822F073
S31508007430010202601868026822F4706242EA0122B8
S31508007440026019680A6842F001020A60202283F87D
S315080074504120002083F84000704702207047022030
S31508007460704700282FD038B5044603684CF6CC423E
S315080074701A60036845F255521A60036842685A60F2
S31508007480036882689A60FDF7D5FE05462368DA68C0
S3150800749012F0070F0BD0FDF7CDFE401B3128F5D9AA
S315080074A02368DB6813F0070FF0D0032005E019699D
S315080074B0E268914202D01A61002038BD4AF6AA2233
S315080074C01A600020F9E70120704703684AF6AA22E5
S315080074D01A60002070470000024B186800F4C0606C
S315080074E0704700BF00700040B0F5007F0FD01F4BFB
S315080074F01B6803F4C063B3F5806F34D01B4A136866
S3150800750023F4C06343F48063136000207047174B6D
S315080075101B6803F4C063B3F5007F20D0134A1368D1
S3150800752023F4C06343F400731360114B1B683222C3
S3150800753002FB03F30F4AA2FB03239B0C013300E073
S31508007540013B0A4A526912F4806F01D0002BF7D129
S31508007550064B5B6913F4806F03D100207047002047
S315080075607047032070470020704700BF0070004036
S315080075709400002083DE1B4330B583B00446204BBD
S315080075809B6D13F0805F0BD0FFF7A6FFB0F5007F69
S3150800759017D0802C1FD82DD0702C2DD000211BE0A1
S315080075A0174DAB6D43F08053AB65AB6D03F080535D
S315080075B00193019BFFF790FFAB6D23F08053AB65FA
S315080075C0E4E7802C03D9A02C03D9022104E000218A
S315080075D002E0012100E003210A4A136823F00703A9
S315080075E00B431360136803F007038B4206D1002090
S315080075F003B030BD0221EFE70121EDE70120F7E7EF
S315080076000010024000200240284A9368D26802F01F
S31508007610030213F00C030AD00C2B06D0042B1FD040
S31508007620082B20D00020024610E0012AF6D11F4A76
S31508007630126812F0080F0CD11C4AD2F89420C2F333
S3150800764003221B4951F8222043B100200C2B0DD0F0
S315080076507047164A1268C2F30312F2E71046F5E7B6
S3150800766014480022F2E714480022EFE70F4BDB68C4
S3150800767003F00303022B16D0032B00D10E4A0B4945
S31508007680CB68C3F302130133C868C0F3062002FBB4
S3150800769000F0B0FBF3F0CB68C3F3416301335B0042
S315080076A0B0FBF3F0D4E7034AE9E700BF0010024055
S315080076B0ECCF00080024F400005A6202002800F00B
S315080076C01C83F0B583B00446964B9D6805F00C05FF
S315080076D0DE6806F00306036813F0100F5AD0E5B10A
S315080076E00C2D18D0A369002B00F0BB808D4A1368B7
S315080076F043F001031360FDF79DFD0746894B1B68A0
S3150800770013F0020F40F09A80FDF794FDC01B022883
S31508007710F4D90320FCE2012EE4D1824B1B6813F056
S31508007720020F03D0A369002B00F0E982206A7D4B83
S315080077301B6813F0080F5BD07A4B1B6803F0F00345
S3150800774098425CD8774B1A6842F008021A601A68A1
S3150800775022F0F002216A0A431A605A6822F47F422C
S31508007760E16942EA01225A60002D60D0FFF74CFF1A
S315080077706C4B9B68C3F303136B4AD35C03F01F037C
S31508007780D8406A4B18606A4B1868FDF70FFD002849
S3150800779040F0BE82236813F0010F00F08180082DA7
S315080077A075D00C2D71D06368B3F5803F00F09780D3
S315080077B0B3F5A02F00F099805A4B1A6822F480324C
S315080077C01A601A6822F480221A606368002B00F097
S315080077D09980FDF72FFD0746524B1B6813F4003FAF
S315080077E05ED1FDF727FDC01B6428F5D903208FE27B
S315080077F04C4BD3F894301B0903F0F003A0E7FFF7CE
S31508007800BBFE002840F07D82464B1A6842F008020B
S315080078101A601A6822F0F002216A0A431A605A6846
S3150800782022F47F42E16942EA01225A609EE7206A11
S31508007830FFF7A2FE002899D0012069E2394B1A68A1
S3150800784042F008021A601A6822F0F002216A0A4316
S315080078501A605A6822F47F42E16942EA01225A60B4
S3150800786098E7304A136823F001031360FDF7E2FC3A
S3150800787007462C4B1B6813F0020F8BD0FDF7DAFC7A
S31508007880C01B0228F5D9032042E2032E8BD1254BD3
S315080078901B6813F4003F03D06368002B00F03382A3
S315080078A0236813F0020F58D0042D45D00C2D41D073
S315080078B0E368002B77D01B4A136843F48073136080
S315080078C0FDF7B8FC0646174B1B6813F4806F61D1A9
S315080078D0FDF7B0FC801B0228F5D9032018E2114AEF
S315080078E0136843F4803313606FE703F18043A3F50D
S315080078F03C331A6842F480221A601A6842F48032CD
S315080079001A6062E7FDF796FC0746064B1B6813F4F8
S31508007910003FC5D0FDF78EFCC01B6428F5D90320AF
S31508007920F6E100BF001002401CD0000894000020B9
S315080079309C000020022EBBD1A44B1B6813F4806F59
S3150800794003D0E368002B00F0E081A04A536823F0D7
S31508007950F853216943EA01635360236813F0080F5B
S315080079604CD063699BB3994AD2F8943043F001032B
S31508007970C2F89430FDF75EFC0646944BD3F8943073
S3150800798013F0020F3AD1FDF755FC801B0228F4D9F3
S315080079900320BDE18D4A536823F0F853216943EA71
S315080079A001635360D9E7894A136823F48073136027
S315080079B0FDF740FC0646854B1B6813F4806FCCD058
S315080079C0FDF738FC801B0228F5D90320A0E17F4A81
S315080079D0D2F8943023F00103C2F89430FDF72AFC5C
S315080079E006467A4BD3F8943013F0020F06D0FDF70B
S315080079F021FC801B0228F4D9032089E1236813F0AF
S31508007A00040F7AD0714B9B6D13F0805F36D16F4BA4
S31508007A109A6D42F080529A659B6D03F080530193EC
S31508007A20019B01266A4B1B6813F4807F28D0A36844
S31508007A30012B39D0052B3FD0644BD3F8902022F088
S31508007A400102C3F89020D3F8902022F00402C3F86C
S31508007A509020A368002B3DD0FDF7ECFB07465B4B57
S31508007A60D3F8903013F0020F46D1FDF7E3FBC01BA5
S31508007A7041F288339842F2D9032049E10026D1E73A
S31508007A80534A136843F480731360FDF7D3FB074624
S31508007A904F4B1B6813F4807FC9D1FDF7CBFBC01B86
S31508007AA00228F5D9032033E1484AD2F8903043F04A
S31508007AB00103C2F89030CCE7444BD3F8902042F04B
S31508007AC00402C3F89020D3F8902042F00102C3F8CC
S31508007AD09020BEE7FDF7AEFB07463C4BD3F8903047
S31508007AE013F0020F08D0FDF7A5FBC01B41F288333F
S31508007AF09842F2D903200BE1E6B9236813F0200F68
S31508007B0035D0636AE3B1314AD2F8983043F00103BD
S31508007B10C2F89830FDF78EFB06462C4BD3F8983002
S31508007B2013F0020F23D1FDF785FB801B0228F4D939
S31508007B300320EDE0254A936D23F080539365DCE737
S31508007B40224AD2F8983023F00103C2F89830FDF79C
S31508007B5071FB06461D4BD3F8983013F0020F06D07A
S31508007B60FDF768FB801B0228F4D90320D0E0A36A3E
S31508007B70002B00F0CC80022B17D00C2D00F0CC8007
S31508007B80124A136823F080731360FDF753FB04460B
S31508007B900E4B1B6813F0007F00F0A880FDF74AFB28
S31508007BA0001B0228F4D90320B2E0084BDB6803F077
S31508007BB00301E26A91420DD00C2D00F0AB80034B15
S31508007BC01B6813F0806F2FD00120A1E0001002403F
S31508007BD00070004003F07002216B0139B2EB011FFF
S31508007BE0EAD103F4FE42616BB2EB012FE4D103F054
S31508007BF07842A16BB2EBC16FDED103F4C001E26B30
S31508007C005208013AB1EB425FD6D103F0C063226C49
S31508007C105208013AB3EB426FCED1404B1B6813F0C2
S31508007C20007F49D0002073E03C4A136823F0807334
S31508007C301360FDF7FFFA0546384B1B6813F0007F03
S31508007C4006D0FDF7F7FA401B0228F5D903205FE0B6
S31508007C50324AD36832491940E36A206B013843EA4D
S31508007C600013606B43EA0023E06B4008013843EADF
S31508007C704053206C4008013843EA4063A06B43EA4E
S31508007C80C0631943D160136843F080731360D368E7
S31508007C9043F08073D360FDF7CDFA04461F4B1B688B
S31508007CA013F0007F06D1FDF7C5FA001B0228F5D9A7
S31508007CB003202DE000202BE0184B1A6842F0807252
S31508007CC01A60DA6842F08072DA60FDF7B3FA0446A1
S31508007CD0124B1B6813F0007F06D1FDF7ABFA031BA6
S31508007CE0022BF5D9032013E0002011E00B4AD168D6
S31508007CF00C4B0B40D36000200AE00120704701209E
