S00F0000746563776172652E737265632A
S3150800280000C0002065CA0008CD520008DB52000847
S31508002810E9520008F75200080553000800000000B6
S3150800282000000000000000000000000051C500087C
S315080028301353000800000000F1C5000815530008EE
S31508002840B5CA0008B5CA0008B5CA0008B5CA00085E
S31508002850B5CA0008B5CA0008B5CA0008B5CA00084E
S31508002860B5CA0008B5CA0008B5CA0008B5CA00083E
S315080028702D5300083D530008B5CA0008B5CA00081C
S31508002880B5CA0008B5CA00084D5300085D530008CC
S315080028906D5300087D5300088D530008B5CA00081B
S315080028A0B5CA0008B5CA0008B5CA0008B5CA0008FE
S315080028B0B5CA00080000000000000000B5CA0008FC
S315080028C0B5CA000800000000000000009D5300087B
S315080028D000000000B5CA0008B5CA000800000000DC
S315080028E0B5CA0008B5CA00080000000000000000CC
S315080028F000000000000000000000000000000000CA
S31508002900000000000000000000000000B5CA000832
S315080029100000000000000000B5CA0008B5CA00089B
S31508002920B5CA0008B5CA0008AD530008B5CA0008FC
S31508002930B5CA000800000000000000000000000002
S31508002940B5CA0008B5CA0008B5CA0008B5CA00085D
S31508002950B5CA0008B5CA0008B5CA0008B5CA00084D
S31508002960B5CA0008B5CA0008B5CA000800000000C4
S31508002970B5CA0008B5CA000800000000000000003B
S31508002980B5CA0008B5CA0008B5CA00082255AAEE95
S3150800299010B5054C237833B9044B13B10448AFF38B
S315080029A000800123237010BD1801002000000000DC
S315080029B098CC000808B5034B1BB103490348AFF38D
S315080029C0008008BD000000001C01002098CC00080B
S315080029D081F0004102E000BF83F0004330B54FEAC2
S315080029E041044FEA430594EA050F08BF90EA020F2F
S315080029F01FBF54EA000C55EA020C7FEA645C7FEAC2
S31508002A00655C00F0E2804FEA5454D4EB5555B8BFE4
S31508002A106D420CDD2C4480EA020281EA030382EA55
S31508002A20000083EA010180EA020281EA0303362DE7
S31508002A3088BF30BD11F0004F4FEA01314FF4801CBA
S31508002A404CEA113102D0404261EB410113F0004FCC
S31508002A504FEA03334CEA133302D0524263EB430383
S31508002A6094EA050F00F0A780A4F10104D5F1200E21
S31508002A700DDB02FA0EFC22FA05F2801841F100017C
S31508002A8003FA0EF2801843FA05F359410EE0A5F150
S31508002A9020050EF1200E012A03FA0EFC28BF4CF081
S31508002AA0020C43FA05F3C01851EBE37101F0004537
S31508002AB007D54FF0000EDCF1000C7EEB00006EEB44
S31508002AC00101B1F5801F1BD3B1F5001F0CD34908CE
S31508002AD05FEA30004FEA3C0C04F101044FEA445225
S31508002AE012F5800F80F09A80BCF1004F08BF5FEAAC
S31508002AF0500C50F1000041EB045141EA050130BD8C
S31508002B005FEA4C0C404141EB0101013C28BFB1F59D
S31508002B10801FE9D291F0000F04BF01460020B1FAE8
S31508002B2081F308BF2033A3F10B03B3F120020CDABB
S31508002B300C3208DD02F1140CC2F10C0201FA0CF099
S31508002B4021FA02F10CE002F11402D8BFC2F1200CFE
S31508002B5001FA02F120FA0CFCDCBF41EA0C019040B4
S31508002B60E41AA2BF01EB0451294330BD6FEA0404FD
S31508002B701F3C1CDA0C340EDC04F11404C4F12002E8
S31508002B8020FA04F001FA02F340EA030021FA04F3FA
S31508002B9045EA030130BDC4F10C04C4F1200220FA51
S31508002BA002F001FA04F340EA0300294630BD21FA8F
S31508002BB004F0294630BD94F0000F83F4801306BF55
S31508002BC081F480110134013D4EE77FEA645C18BF49
S31508002BD07FEA655C29D094EA050F08BF90EA020FE0
S31508002BE005D054EA000C04BF1946104630BD91EAD8
S31508002BF0030F1EBF0021002030BD5FEA545C05D1DB
S31508002C004000494128BF41F0004130BD14F5800419
S31508002C103CBF01F5801130BD01F0004545F0FE418D
S31508002C2041F470014FF0000030BD7FEA645C1ABFC2
S31508002C30194610467FEA655C1CBF0B46024650EAF9
S31508002C40013406BF52EA033591EA030F41F4002125
S31508002C5030BD00BF90F0000F04BF0021704730B5AB
S31508002C604FF4806404F132044FF000054FF0000180
S31508002C7050E700BF90F0000F04BF0021704730B541
S31508002C804FF4806404F1320410F0004548BF404216
S31508002C904FF000013EE700BF42004FEAE2014FEA6B
S31508002CA031014FEA02701FBF12F07F4393F07F4F46
S31508002CB081F06051704732F07F4208BF704793F049
S31508002CC07F4F04BF41F40021704730B54FF460745C
S31508002CD001F0004521F000411CE700BF50EA01025F
S31508002CE008BF704730B54FF000050AE050EA010208
S31508002CF008BF704730B511F0004502D5404261EB78
S31508002D0041014FF4806404F132045FEA915C3FF4B8
S31508002D10D8AE4FF003025FEADC0C18BF03325FEA55
S31508002D20DC0C18BF033202EBDC02C2F1200300FA06
S31508002D3003FC20FA02F001FA03FE40EA0E0021FA2B
S31508002D4002F11444BDE600BF70B54FF0FF0C4CF419
S31508002D50E06C1CEA11541DBF1CEA135594EA0C0FCB
S31508002D6095EA0C0F00F0DEF82C4481EA030621EA06
S31508002D704C5123EA4C5350EA013518BF52EA033541
S31508002D8041F4801143F4801338D0A0FB02CE4FF0F3
S31508002D900005E1FB02E506F00042E0FB03E54FF023
S31508002DA00006E1FB03569CF0000F18BF4EF0010E1B
S31508002DB0A4F1FF04B6F5007F64F5407404D25FEA17
S31508002DC04E0E6D4146EB060642EAC62141EA5551CA
S31508002DD04FEAC52040EA5E504FEACE2EB4F1FD0C0C
S31508002DE088BFBCF5E06F1ED8BEF1004F08BF5FEA8A
S31508002DF0500E50F1000041EB045170BD06F000463C
S31508002E0046EA010140EA020081EA0301B4EB5C04E8
S31508002E10C2BFD4EB0C0541EA045170BD41F48011E0
S31508002E204FF0000E013C00F3AB8014F1360FDEBF05
S31508002E30002001F0004170BDC4F10004203C35DAE1
S31508002E400C341BDC04F11404C4F1200500FA05F364
S31508002E5020FA04F001FA05F240EA020001F0004205
S31508002E6021F0004110EBD37021FA04F642EB06017B
S31508002E705EEA430E08BF20EAD37070BDC4F10C04A5
S31508002E80C4F1200500FA04F320FA05F001FA04F269
S31508002E9040EA020001F0004110EBD37041F1000155
S31508002EA05EEA430E08BF20EAD37070BDC4F1200560
S31508002EB000FA05F24EEA020E20FA04F301FA05F2C8
S31508002EC043EA020321FA04F001F0004121FA04F270
S31508002ED020EA020000EBD3705EEA430E08BF20EA40
S31508002EE0D37070BD94F0000F0FD101F0004640007A
S31508002EF041EB010111F4801F08BF013CF7D041EAFC
S31508002F00060195F0000F18BF704703F000465200FF
S31508002F1043EB030313F4801F08BF013DF7D043EAD0
S31508002F200603704794EA0C0F0CEA135518BF95EA86
S31508002F300C0F0CD050EA410618BF52EA4306D1D10D
S31508002F4081EA030101F000414FF0000070BD50EA2C
S31508002F50410606BF1046194652EA430619D094EAB6
S31508002F600C0F02D150EA013613D195EA0C0F05D1A0
S31508002F7052EA03361CBF104619460AD181EA0301F4
S31508002F8001F0004141F0FE4141F470014FF00000AC
S31508002F9070BD41F0FE4141F4780170BD70B54FF047
S31508002FA0FF0C4CF4E06C1CEA11541DBF1CEA1355C7
S31508002FB094EA0C0F95EA0C0F00F0A7F8A4EB0504A9
S31508002FC081EA030E52EA03354FEA013100F08880A0
S31508002FD04FEA03334FF0805545EA131343EA126369
S31508002FE04FEA022245EA111545EA10654FEA00261E
S31508002FF00EF000419D4208BF964244F1FD0404F5D7
S31508003000407402D25B084FEA3202B61A65EB030532
S315080030105B084FEA32024FF480104FF4002CB6EBEF
S31508003020020E75EB030E22BFB61A754640EA0C006F
S315080030305B084FEA3202B6EB020E75EB030E22BFAF
S31508003040B61A754640EA5C005B084FEA3202B6EBF0
S31508003050020E75EB030E22BFB61A754640EA9C00AF
S315080030605B084FEA3202B6EB020E75EB030E22BF7F
S31508003070B61A754640EADC0055EA060E18D04FEA3D
S31508003080051545EA16754FEA06164FEAC30343EADD
S3150800309052734FEAC2025FEA1C1CC0D111F4801FAA
S315080030A00BD141EA00014FF000004FF0004CB6E7A3
S315080030B011F4801F04BF01430020B4F1FD0C88BF42
S315080030C0BCF5E06F3FF6AFAEB5EB030C04BFB6EB4D
S315080030D0020C5FEA500C50F1000041EB045170BD40
S315080030E00EF0004E4EEA113114EB5C04C2BFD4EB6D
S315080030F00C0541EA045170BD41F480114FF0000EF1
S31508003100013C90E645EA060E8DE60CEA135594EA6C
S315080031100C0F08BF95EA0C0F3FF43BAF94EA0C0F6F
S315080031200AD150EA01347FF434AF95EA0C0F7FF4E4
S3150800313025AF104619462CE795EA0C0F06D152EA38
S3150800314003353FF4FDAE1046194622E750EA41061C
S3150800315018BF52EA43067FF4C5AE50EA41047FF42D
S315080031600DAF52EA43057FF4EBAE12E74FF0FF3C92
S3150800317006E000BF4FF0010C02E000BF4FF0010C63
S315080031804DF804CD4FEA410C7FEA6C5C4FEA430CDC
S3150800319018BF7FEA6C5C1BD001B050EA410C0CBF2B
S315080031A052EA430C91EA030F02BF90EA020F00208D
S315080031B0704710F1000F91EA030F58BF994208BFF4
S315080031C090422CBFD8176FEAE37040F001007047B1
S315080031D04FEA410C7FEA6C5C02D150EA013C07D108
S315080031E04FEA430C7FEA6C5CD6D152EA033CD3D053
S315080031F05DF8040B704700BF8446104662468C464D
S315080032001946634600E000BF01B5FFF7B7FF00287F
S3150800321048BF10F1000F01BD4DF808EDFFF7F4FFA8
S315080032200CBF012000205DF808FB00BF4DF808ED33
S31508003230FFF7EAFF34BF012000205DF808FB00BF56
S315080032404DF808EDFFF7E0FF94BF012000205DF878
S3150800325008FB00BF4DF808EDFFF7CEFF94BF01202D
S3150800326000205DF808FB00BF4DF808EDFFF7C4FF26
S3150800327034BF012000205DF808FB00BF4FEA410279
S31508003280B2F1E04324BFB3F5001CDCF1FE5C0DD9B6
S3150800329001F0004C4FEAC0024CEA5070B2F1004F00
S315080032A040EB830008BF20F00100704711F0804F03
S315080032B021D113F13872BCBF01F00040704741F4C8
S315080032C080114FEA5252C2F11802C2F1200C10FACC
S315080032D00CF320FA02F018BF40F001004FEAC123B0
S315080032E04FEAD32303FA0CFC40EA0C0023FA02F354
S315080032F04FEA4303CCE77FEA625307D150EA01332A
S315080033001EBF4FF0FE4040F44000704701F00040F9
S3150800331040F0FE4040F40000704700BF08B52D4B52
S31508003320D3F8945001F064F900F0010401F052FB5F
S31508003330044000F02FFC044015F0005F3CD115F066
S31508003340805F3DD101F0BEF8044000F09BFE0440CA
S3150800335000F0F4FE044001F069F9044000F0CEFCE8
S31508003360044001F0E1FA044000F0E6FF044000F0F2
S31508003370C3F9044000F01CF9044225D106F05EFDAD
S31508003380002000F08FF9022001F026F9124B1B6885
S315080033909B0B642202FB03F3002BF4D000BF00BF93
S315080033A000BF00BF00BF00BF00BF00BF00BF00BF17
S315080033B000BF00BF013BEFE7084801F021F9C1E76C
S315080033C0074801F01DF9BDE7064B186806F0A5FD8C
S315080033D0FEE700BF0010024094000020010000092B
S315080033E0020000093401002008B5054A00210548F5
S315080033F006F039FD044B1860003818BF012008BDD7
S315080034001CCE00081D3300083401002000B585B025
S31508003410EC468CE80F0000231A466146054800680A
S3150800342006F09BFF0121044B186806F023FE05B041
S315080034305DF804FB440100204001002008B5014660
S31508003440024B186806F016FE08BD00BF40010020B2
S3150800345030B589B08BE000231A4602A94E480068A9
S3150800346006F0BDFF9DF808509DF81130012B12D0CB
S31508003470022B35D0002B40F08780082D3CD86AB245
S31508003480002A69D0013D072D66D8DFE805F03D41E1
S3150800349045654C4F5B62142D0DD9404801F0B0F8D4
S315080034A0FF238DF818309DF81130059A012106A8DA
S315080034B000F090FF68E0284600F038FB01908DF890
S315080034C0185004220DF119010DEB020001F098FFC6
S315080034D09DF81130059A052106A800F07BFF53E0F8
S315080034E004220DEB02010DF1090001F089FF019993
S315080034F0284600F0ABFA47E0FF2D2DD1002000F05A
S31508003500D1F803F029FA3FE0012000F0CBF83BE0C0
S31508003510002000F0C7F837E040F6B831204B1868AD
S3150800352006F06CFD30E001F065F82DE006228DF816
S3150800353018200C228DF81920059A022106A800F0F9
S3150800354049FF21E000F038FBF0B9164801F058F8B9
S315080035501AE000F051FB17E0134801F051F813E0A8
S31508003560022001F039F812E0002000F09BF84FF035
S31508003570FF33002207210D48006806F0C8FD0446FF
S3150800358010F0010F7FF467AF14F0020FE8D114F0C2
S31508003590040FECD0E8E700BF440100200100000852
S315080035A0380100200400000802000008400100203D
S315080035B070B52A4806F03CFD294B1860041E18BF52
S315080035C00124284A0021284806F04DFC274B18609C
S315080035D000280CBF002404F00104254A1021082005
S315080035E006F070FE234B186000280CBF002404F078
S315080035F00104214D214B02220121284606F0AAFC8E
S315080036001F4E306000280CBF002404F001041D4B37
S3150800361004220121284606F09DFC1B4D286000283F
S315080036200CBF002404F001044FF47A71306806F0E8
S31508003630E5FC002814BF002404F0010440F6B83164
S31508003640286806F0DBFC002814BF002404F00104F7
S315080036500E4800F0E7FE204670BD00BF60CE0008A9
S315080036604001002088CE0008513400084801002097
S3150800367070CE0008440100203D34000850CE0008F2
S315080036803C01002040CE0008380100200D34000817
S3150800369008B50146024B186806F0ECFC08BD00BFE9
S315080036A04C01002010B504460146032000F058FFDF
S315080036B02146122000F02CFA10BD08B5122000F0A1
S315080036C049FA08BD08B5F2EE087AB4EEE70AF1EE53
S315080036D010FA09DCF9EE047AB4EEE70AF1EE10FA0C
S315080036E004D5B9EE040A01E0B2EE080A00F06EFD50
S315080036F000F0010008BD000038B5174A0021174838
S3150800370006F0B1FB164B1860041E18BF01241548B5
S3150800371006F08EFC144B186000280CBF002404F039
S315080037200104124B01221146114806F013FC114DF3
S31508003730286000280CBF002404F001049FED0E0A3F
S31508003740FFF7C0FFC821286806F058FC002814BFF8
S31508003750002004F0010038BDCCCE00087D370008F3
S3150800376054010020ACCE00084C010020BCCE000855
S3150800377091360008500100200000000008B52DED24
S315080037800C8BDFED759AB0EE699AF0EE698AB0EEA9
S31508003790698A45E00020FFF785FF704800F030FF92
S315080037A06FE09FED6D9AF4EEE7CAF1EE10FA02D5D6
S315080037B07CEEE76A01E0DFED686AB4EEC79AF1EEDF
S315080037C010FA07D4F4EEC76AF1EE10FA00F3958002
S315080037D0B0EE479A3DEE0D7A78EEEAAA27EE2A7AF7
S315080037E0DFED5F6A6BEEA66A37EE267AF1EE479A48
S315080037F079EE277A77EEC77AF4EECC7AF1EE10FAFC
S3150800380006DCF4EEEC7AF1EE10FA79D4B0EE67CA7B
S31508003810B0EE4C0AFFF756FF10B9524800F0F0FE1A
S31508003820F0EE69BAB0EE49BAF0EE68AAB0EE48AA68
S315080038304FF0FF33002201214B48006806F067FC71
S3150800384010F0010FF4D0494803F08DFFFFF735FF5C
S315080038509FED418AF0EE488AB0EE489AF0EE489A13
S315080038600028DDD0002000F075F900284BD10E2085
S3150800387000F074F9DFED3E7AB4EEE70AF1EE10FADD
S3150800388088DC022000F06AF9B0EE409A032000F0C6
S3150800389065F9F0EE409A042000F060F9B0EE40DADF
S315080038A0062000F05BF9B0EE40CA072000F056F992
S315080038B0F0EE40CA092000F051F9F0EE408A0520E2
S315080038C000F04CF938EEC08A69EE087AB6EE007A4E
S315080038D029EE877ADFED276A27EE267A3AEE08AAD6
S315080038E027EE0A7A37EE0B7AB4EEE7CAF1EE10FA4B
S315080038F07FF757AF3CEE679A55E7B0EE669A69E7E9
S31508003900B0EE6CCA84E7002000F024F9012808D03C
S31508003910F0EE6B9AB0EE4B9AF0EE6A8AB0EE4A8AEF
S315080039207EE700F01BF9FFF7CDFE40B1DFED0A9AFE
S31508003930B0EE699AF0EE698AB0EE698A70E70E48C9
S3150800394000F05EFEDFED049AB0EE699AF0EE698A41
S31508003950B0EE698A64E700BF0000000004000007B3
S315080039609A99193F020000074C01002064030020C1
S315080039700000DC42CDCC4C3E0100000701288CBF7C
S315080039800020012070470000084B03EB00139B68DA
S315080039908B4207D8054B03EB0013DB688B4203D237
S315080039A000207047002070470120704700CF0008AC
S315080039B0084B03EB00139B688B4207DC054B03EBB4
S315080039C00013DB688B4203DA00207047002070473B
S315080039D00120704700CF00080C4B03EB0013D3ED12
S315080039E0027AF4EEC07AF1EE10FA0BD8074B03EB25
S315080039F00013D3ED037AF4EEC07AF1EE10FA03DA87
S31508003A0000207047002070470120704700CF00084B
S31508003A1008B503010C4AD35C13F0010F09D113F062
S31508003A20020F0BD113F0040F0BD00846FFF7A6FFC1
S31508003A3003E000EE101AFFF7CFFF08BDFFF7B8FF47
S31508003A40FBE7FFF7A1FFF8E700CF000838B5044603
S31508003A500301144AD35C13F0080F13D10D464FF037
S31508003A60FF31114B186806F0D7FB29462046FFF7A9
S31508003A70CFFF78B10D4B43F834500B4B186806F05E
S31508003A80FAFB38BD000240F0C06040F0040000F0C8
S31508003A90B7FDF6E7200240F0C06040F0080000F0ED
S31508003AA0AFFDEAE700CF0008580100205C010020BE
S31508003AB038B504460D464FF0FF31134B186806F02B
S31508003AC0ABFB082C0CD029462046FFF7A1FF60B1B6
S31508003AD00E4B43F834500C4B186806F0CCFB38BD37
S31508003AE000F072FC0828F3D1EDE7084B03EBC4039A
S31508003AF01A7942F002021A71200240F0C06040F0C2
S31508003B00100000F07DFDE3E7580100205C0100206D
S31508003B1008B5FFF7CDFF08BD00B583B08DED010AE6
S31508003B200199FFF7C5FF03B05DF804FB38B50446F5
S31508003B30064D4FF0FF31286806F06EFB044B53F82C
S31508003B403440286806F097FB204638BD5801002007
S31508003B505C01002008B5FFF7E9FF08BD08B5FFF7C7
S31508003B60E5FF00EE100A08BD08B5034B03EB00138A
S31508003B705968FFF79DFF08BD00CF000810B500245F
S31508003B8004E0E0B2FFF7F0FF0134A4B2142CF8D930
S31508003B9010BD000010B5064806F0F3FA054B18608C
S31508003BA0041E18BF0124FFF7E9FF204610BD00BF19
S31508003BB0F0CE00085801002038B500F0FBFE00F0F2
S31508003BC00105002401E00134E4B2142C0ED82301C7
S31508003BD0084AD35C13F0100FF5D02046FFF7A6FF6E
S31508003BE00146204600F0B9FE0540ECE700F0D4FE99
S31508003BF0284038BD00CF000830B583B00024012521
S31508003C0001E00134E4B2142C10D82301124AD35C23
S31508003C1013F0100FF5D001A9204600F097FE0540D5
S31508003C20EFD001992046FFF743FFEAE70DB103B04D
S31508003C3030BD0A4800F0E4FC002401E00134E4B297
S31508003C40142CF4D82301044AD35C13F0100FF5D0D2
S31508003C502046FFF789FFF1E700CF0008200000069D
S31508003C6008B572B10D4B60F07F00187000225A70CB
S31508003C7099700B480323838100F0E6FC00F00100ED
S31508003C8008BD064B60F07F0018705970044802237F
S31508003C90838100F0D9FC00F00100F1E7080200205A
S31508003CA00000002010B50C4692B1114B1870002286
S31508003CB05A709A700F480323838100F0C5FC00F000
S31508003CC001000D4B5A789B7843EA0223238010BDE6
S31508003CD0074B187000225A7006480223838100F0A9
S31508003CE0B3FC00F00100044B5B782380EFE700BFCC
S31508003CF008020020000000201002002038B51448F1
S31508003D0006F03FFA134D2860041E18BF01244FF031
S31508003D10FF3106F081FA002000F0B4FB0022822170
S31508003D201046FFF79DFF0440002000F0BBFB012072
S31508003D3000F0A8FB002282211046FFF791FF0440FD
S31508003D40012000F0AFFB286806F095FA204638BD3A
S31508003D5050D00008040200202DE9F04182B00F4639
S31508003D60904600230B70ADF8063018B1012854D0E0
S31508003D70012600E00126404D4FF0FF31286806F085
S31508003D804BFA304600F07EFB0022A0211046FFF7D2
S31508003D9067FF00F00104304600F084FB286806F04F
S31508003DA06AFA642006F0C8F84FF0FF31286806F072
S31508003DB033FA304600F066FB01220DF10601104683
S31508003DC0FFF770FF0440304600F06CFB286806F0E9
S31508003DD052FA24B3BDF8063013F0010F24D15B085C
S31508003DE0ADF80630A8F80030234D4FF0FF312868AB
S31508003DF006F012FA304600F045FB002284211046F0
S31508003E00FFF72EFF0440304600F04CFB286806F00A
S31508003E1032FA204602B0BDE8F0810026ABE73B78CF
S31508003E2043F002033B70F4E7134C4FF0FF31206870
S31508003E3006F0F2F9304600F025FB00223946072045
S31508003E40FFF730FF304600F02DFB304600F01AFB36
S31508003E50002282211046FFF703FF304600F022FBBE
S31508003E60206806F008FA3B7803F0FC033B7043F041
S31508003E7001033B700024CCE7040200200000000088
S31508003E80F0B585B0012006F057F808227249734844
S31508003E9002F026F8B9E004244FF0FF31704B186899
S31508003EA006F0BAF900230AE0E1186B4A32F8111055
S31508003EB004AA02EB830242F8101C01339BB2032BBF
S31508003EC0F2D91420FFF74AFE002325E004AA02EBE4
S31508003ED0830252ED047AF8EE677A9FED627A67EE0E
S31508003EE0877A9FED617A67EE877A67EE807A5F4A0E
S31508003EF002EB830292ED007A67EE277A5C4A02EBC0
S31508003F00830292ED007A77EEC77A5A4A02EB830269
S31508003F10C2ED007A01339BB2032BD7D9002401E006
S31508003F200134A4B2032C1DD8524B03EB8403186842
S31508003F30FEF7B2FE06460F4643A3D3E90023FFF772
S31508003F4089F90028ECD042A3D3E900233046394644
S31508003F50FFF76CF90028E3D0464B03EB84030022F5
S31508003F601A60DDE7002301E001339BB2032B14D866
S31508003F70414A52F82320002AF6D13E4A02EB830230
S31508003F80D2ED007AF5EEC07AF1EE10FAECD5394AA0
S31508003F9002EB830200211160E6E7364C94ED020A33
S31508003FA00B20FFF7B9FD94ED030A0C20FFF7B4FDCB
S31508003FB0D4ED037AF5EE407AF1EE10FA36D19FED9C
S31508003FC02F0A0D20FFF7A8FD2A4C94ED020AD4ED1E
S31508003FD0037A20EE270A0E20FFF79EFD94ED000ACD
S31508003FE00F20FFF799FD94ED010A1020FFF794FDC5
S31508003FF094ED000AD4ED017A20EE270A1120FFF786
S315080040008BFD174B186806F036F94FF0FF33002280
S3150800401003211B48006806F07AF810F0020F7FF4B7
S315080040203AAF10F0010FF0D0002435E7114B93EDAD
S31508004030027A87EE270AB0EEC00A0D20FFF76CFD5C
S31508004040C2E700BFAFF300809A9999999999B9BFC9
S315080040509A9999999999B93F3402002070040020D9
S31508004060280200200000803D00008039C4D00008E6
S31508004070B4D0000818020020A4D0000800000000F0
S315080040802C02002010B50F4A00210F4805F0EBFE60
S315080040900E4B1860041E18BF01240D4805F0C8FF12
S315080040A00C4B186000280CBF002404F001040A48D1
S315080040B006F067F8094B186000280CBF002004F0CA
S315080040C0010010BD80D00008813E000830020020A3
S315080040D070D000082C02002060D0000828020020BA
S315080040E008B50221024B186805F0C4FF08BD00BFD9
S315080040F02C02002008B50121024B186805F0BAFF0A
S3150800410008BD00BF2C02002008B5836D33B9C36C07
S31508004110D86B40F0806000F073FA08BD806D40F0FF
S31508004120407000F06DFAF8E708B50146024B1868CA
S3150800413005F0A0FF08BD00BF4C02002038B51A4A9A
S3150800414000211A4805F08FFE194B1860041E18BF87
S315080041500124184805F06CFF174B186000280CBF9F
S31508004160002404F00104154B01221146144805F0F9
S31508004170F1FE144D286000280CBF002404F0010449
S315080041800021114802F08EFC002814BF002404F018
S3150800419001043221286805F031FF002814BF0020E9
S315080041A004F0010038BD00BFF4D00008154300082C
S315080041B054020020D4D000084C020020E4D00008A5
S315080041C02941000850020020C803002008B5064B04
S315080041D083ED000A0121054B186805F04BFFB0FA7C
S315080041E080F0400908BD00BF440200204C020020B0
S315080041F008B52DED028B10EE100AFEF74DFD11A342
S31508004200D3E90023FEF7EAFB10A3D3E90023FEF760
S31508004210C5FEFFF733F808EE100ADFED097A28EE37
S31508004220278A1420FFF79AFCC8EE007AFCEEE77A94
S3150800423017EE900ABDEC028B08BD00BFAFF30080F5
S3150800424000F07F454A0C022B87163440166BB8C817
S315080042503D0D41400000000008B52DED028B2A4BAC
S31508004260D3ED007A294B93ED008AF4EEC87AF1EE85
S3150800427010FA26D517EE900AFEF70EFD20A3D3E90D
S315080042800023FEF7ABFBFEF7F9FF07EE900A1E4B7D
S315080042901860B4EEE78AF1EE10FA01D583ED008ACC
S315080042A0194B93ED000AFFF7A3FF034600221146B8
S315080042B0174802F029FCB0FA80F04009BDEC028BE1
S315080042C008BDF4EEC87AF1EE10FAE9DD17EE900AA9
S315080042D0FEF7E2FC0AA3D3E90023FEF77DFBFEF70F
S315080042E0CDFF07EE900A084B1860B4EEE78AF1EEA8
S315080042F010FAD5DD83ED008AD2E700BFAFF3008060
S315080043009A9999999999B93F480200204402002040
S31508004310C803002008B54FF0FF33002201210548E5
S31508004320006805F0F4FE10F0010FF4D0FFF794FFD3
S31508004330F1E700BF4C02002070B5042000F02CF90C
S315080043401D4C237803432370032000F025F92378B6
S3150800435043EA40032370022000F01EF9237843EA5B
S3150800436080032370012000F017F9237843EAC00080
S31508004370C0B22070114E336843EA40133360104DC3
S315080043801049284601F04DFF04463146284601F0FB
S3150800439048FF0443E4B2284601F0C6FF0443E4B2EA
S315080043A00221284602F018F9204310F0FF0F0CBF2F
S315080043B00120002070BD00BF5802002044000020E4
S315080043C0000400206C000020014B1878704700BFDD
S315080043D058020020082901D90020704700B587B087
S315080043E012021FFA82FC4CEA03130C4A1278134392
S315080043F043F41073009300230193029303930491EB
S315080044008DF81430012302466946054801F0BAFFC3
S31508004410B0FA80F0400907B05DF804FB58020020A6
S3150800442000040020014B1860704700BF5C020020A2
S3150800443030B58FB005AB07AA002102F018F8079B24
S31508004440C3F300220492C3F301138DF80D309DF8CF
S315080044502C208DF80C2001AC214605A800F0D0FFD1
S31508004460034B1D6894E80F00A8470FB030BD00BF86
S315080044705C02002008B5406A40F0807000F0C0F881
S3150800448008BD000008B5064B4FEA401C03EB401078
S31508004490027F818853F80C0003F063F808BD00BF5B
S315080044A018D1000808B5064B4FEA401C03EB40102C
S315080044B0027E818853F80C0003F053F808BD00BF4C
S315080044C018D1000870B582B0224B1A6E42F001026C
S315080044D01A661B6E03F001030193019B0125002454
S315080044E00BE000231D401C4B4A0103EB411104312C
S315080044F0985802F057FF0134E4B2042C08D8214634
S31508004500154B03EB44139B68002BEAD10123E9E71B
S3150800451000240EE001231D402046FFF7C3FF0F4B82
S31508004520720103EB46110431985802F03BFF01343F
S31508004530E4B2032C0AD82646084B03EB44139B68BF
S31508004540012BE8D0112BE5D00023E4E7284602B07A
S3150800455070BD00BF0010024098D1000818D10008AD
S3150800456008B559B10B4B4FEA401C03EB4010027FCC
S31508004570818853F80C0002F0F4FF08BD054B4FEA9A
S31508004580401C03EB4010027E818853F80C0002F0B1
S31508004590E8FFF2E718D1000838B504460D4B42018A
S315080045A003EB4015A988985802F0D4FFEB69012B54
S315080045B007D0084B03EB44139B69012B05D0002059
S315080045C038BD0128F5D10120FAE708B10020F7E740
S315080045D00120F5E798D1000808B5044B420103EB22
S315080045E040108188985802F0C1FF08BD18D100080C
S315080045F00120704708B500211320FFF789FA08BD86
S3150800460008B501461320FFF783FA08BD00230BB14E
S315080046100020704703EB8302034951F822208242A7
S31508004620F6D00133DBB2F2E738D2000808B5044801
S3150800463005F0FEFC034B1860003818BF012008BDC2
S315080046404CD200086002002038B504460378244D91
S3150800465003EB830305EB83034FF0FF31586805F03E
S31508004660DBFD237803EB830305EB8303D96841F06D
S3150800467002011C4B186805F02AFD237803EB83001A
S31508004680A389A268616855F8200004F043F9002858
S315080046900CBF0125002511D00020237810F0020F49
S315080046A005F0010518BF002503EB83030C4A02EB4E
S315080046B08303586805F0DFFD284638BD237803EBE9
S315080046C08303074A02EB8303D9684FF0FF330022BE
S315080046D041F002010348006805F019FDDDE700BF57
S315080046E038D200086002002008B5FFF78FFF00EBFC
S315080046F08000044B03EB8003D968034B186805F068
S31508004700B9FC08BD38D200086002002008B5FFF7DA
S315080047107DFF00EB8000044B03EB8003D968034B55
S31508004720186805F0A7FC08BD38D20008600200200A
S3150800473010B50446006E40F00070FFF761FF204692
S31508004740FFF764FF0221024B186805F093FC10BDC1
S315080047506002002007EE900AF8EEE77A9FED097AE4
S3150800476087EE870ADFED087A60EE277A9FED077AEB
S3150800477077EE877A20EE270ADFED057A30EE670AAC
S31508004780704700BFECB9FE45DB8A1F416DE76B43F6
S3150800479042E0754310B584B000238DF80F300A2027
S315080047A005F0CAFB01248FE09DF80F0010F0010FF9
S315080047B02CD010F0800F05D110F0400F05D0544BC7
S315080047C001932BE0534B019328E010F0200F08D0FB
S315080047D04F4B019340F0A46040F48020FFF710FF90
S315080047E01CE010F0100F02D0494B0193F2E710F0CD
S315080047F0080F02D0464B0193ECE710F0040F02D0E5
S31508004800434B0193E6E7424B0193E3E710F0020FAF
S3150800481009D03F4B01934048FFF7F2FE00238DF87D
S315080048200F3001245FE03A4B01933C48FFF7E8FE5E
S31508004830F4E79DF80F0010F0010F2CD010F0800F50
S3150800484005D110F0400F05D0314B02932BE0314BC8
S31508004850029328E010F0200F08D02D4B029340F069
S31508004860A26040F48020FFF7CBFE1CE010F0100F8A
S3150800487002D0274B0293F2E710F0080F02D0244B20
S315080048800293ECE710F0040F02D0214B0293E6E7FF
S315080048901F4B0293E3E710F0020F33D01C4B029331
S315080048A01F48FFF7ADFE00238DF80F3001249DED5C
S315080048B0010A0820FFF730F99DED020A0920FFF7E3
S315080048C02BF9642005F038FB03AA0DF10F0100202F
S315080048D0FFF742FA04403FF467AFBDF80C00FFF754
S315080048E039FF8DED010A03AA0DF10F010120FFF72B
S315080048F033FA04409DD0BDF80C00FFF72BFF8DED71
S31508004900020AD4E7024B02930648FFF779FECAE784
S315080049107B9488C3004083450000210500002205DA
S31508004920000011050000120508B5054A00210548D2
S3150800493005F099FA044B1860003818BF012008BD25
S315080049406CD20008954700086402002008B504F0F8
S315080049503BFDB0FA80F0400908BD70B505460E4625
S3150800496005F0F6F9044610F4807F04D10120E4B27C
S31508004970FF2C0ED070BD04F045FB0443A4B23146AB
S31508004980284605F0E5F9204380B2B0FA80F04009E0
S31508004990EDE70020EEE7000010B502F09FFBB0FA45
S315080049A080F46409024B186805F065FC204610BDC2
S315080049B06802002008B54FF0FF31054B186805F06E
S315080049C02BFC02F073FBB0FA80F0400908BD00BF6B
S315080049D06802002010B50B4805F0D3FB0A4B186097
S315080049E0041E18BF0124FFF7E5FF0440002004F069
S315080049F0A5FE002814BF002404F00104FFF7CCFF2D
S31508004A00204010BD90D2000868020020014A024BDF
S31508004A109A6070470028000800ED00E02DE9F04193
S31508004A2088B0002403940494059406940794364B9E
S31508004A30DA6C42F00402DA64DA6C02F004020092DC
S31508004A40009ADA6C42F00102DA64DA6C02F00102CA
S31508004A500192019ADA6C42F00202DA64DB6C03F026
S31508004A6002030293029B294F22464FF4804138469F
S31508004A7002F077FD22464FF480714FF0904002F025
S31508004A8070FD234D22466021284602F06AFD4FF448
S31508004A9080430393012604960594069403A9384691
S31508004AA002F080FC4FF40048CDF80C80049405947D
S31508004AB003A9384602F076FC4FF4807303930496F4
S31508004AC00594069403A94FF0904002F06BFCCDF8CC
S31508004AD00C800494059403A94FF0904002F062FC00
S31508004AE0982303930494059403A9284602F05AFCD4
S31508004AF06023039304960594069403A9284602F0B6
S31508004B0051FC08B0BDE8F0810010024000080048DA
S31508004B100004004800B583B0164B9A6C42F00102B7
S31508004B209A649A6C02F001020092009A9A6C42F01A
S31508004B3002029A649B6C03F002030193019B002214
S31508004B4005210C2001F0F4FE0C2001F001FF0022E3
S31508004B5005210D2001F0ECFE0D2001F0F9FE0022E2
S31508004B6005213A2001F0E4FE3A2001F0F1FE03B0F7
S31508004B705DF804FB0010024008B5FEF735FC024B51
S31508004B80186805F0CAF9FEE76C02002008B500208F
S31508004B90FEF788FD01F0E0FE72B6FEE700B587B0C5
S31508004BA000230093019302930393049305932F48DC
S31508004BB02F4A026043608360C360012202610821B4
S31508004BC04161037642760421C16180F82030836210
S31508004BD0C36280F83020436380F838201C21C16303
S31508004BE0802101644364826400F09EFC002832D16F
S31508004BF0204B009306230193072302937F230393F5
S31508004C0004230493002305936946184800F0E2FE3E
S31508004C1018BB194B00930C2301936946134800F0FF
S31508004C20D9FEE0B9154B00931223019369460F4844
S31508004C3000F0D0FEA8B9124B0093182301936946D9
S31508004C400A4800F0C7FE70B97F21084801F0F2F95A
S31508004C5007B05DF804FBFFF799FFFFF797FFFFF72B
S31508004C6095FFFFF793FFFFF791FF00BF7004002041
S31508004C700000045040002019000021438000501D08
S31508004C800080F03E08B50D480D4B036020234360B5
S31508004C9000238360C3604FF4402202614FF4A002F0
S31508004CA042610376437683760122C2760377437799
S31508004CB001F011FA00B908BDFFF768FF00040020EB
S31508004CC00064004000B58BB02422002101A807F03B
S31508004CD0F2FE1048104B036001F0D2FE98B900228C
S31508004CE00192029203920492059201A9094801F0E1
S31508004CF022FF50B9002201A9064801F0C1FF30B9C8
S31508004D000BB05DF804FBFFF741FFFFF73FFFFFF726
S31508004D103DFF00BFC80300200074004008B51048D6
S31508004D20104B03604FF482734360002383604FF493
S31508004D30E062C2600361012242614FF4007282613F
S31508004D403022C2610362436283620722C26203633E
S31508004D50436303F06FFD00B908BDFFF717FF00BFF7
S31508004D60000300200030014008B51148114B0360CC
S31508004D70114B4360002383600122C26003614361D3
S31508004D808361C361036202F0FAFB50B90021084847
S31508004D9002F059FC38B90021054802F082FC20B916
S31508004DA008BDFFF7F3FEFFF7F1FEFFF7EFFE00BFC2
S31508004DB07403002000540040E49CD11008B508484C
S31508004DC0084B03600623436040F6FF73C3609623CF
S31508004DD0836002F092FC00B908BDFFF7D7FE00BF5A
S31508004DE0640300200030004008B50848084B0360FB
S31508004DF0002303714371436183610123036201F058
S31508004E00C3FD00B908BDFFF7C1FE00BFDC030020E3
S31508004E100030024000B597B04422002105A807F0EB
S31508004E204AFE0023009301930293039304934FF4DD
S31508004E30007002F0A7FC30BB092305934FF4A023AA
S31508004E40069301230A9302230F9303221092042246
S31508004E50119210221292072213921493159305A801
S31508004E6002F074FD88B90F230093032301930023EE
S31508004E700293039304930421684603F09DF830B91E
S31508004E8017B05DF804FBFFF781FEFFF77FFEFFF71B
S31508004E907DFE000008B5FFF7B9FD00F0E1FAFFF75F
S31508004EA0B9FFFFF7BBFDFFF735FEFFF777FEFFF704
S31508004EB0E9FEFFF707FFFFF731FFFFF755FFFFF79B
S31508004EC07DFFFFF791FF04F08BFF054A0021054897
S31508004ED004F0C9FF044B186004F094FFFEE700BF16
S31508004EE0A0D20008794B00086C02002000B583B0F8
S31508004EF00D4B1A6E42F001021A661A6E02F0010292
S31508004F000092009A9A6D42F080529A659B6D03F062
S31508004F1080530193019B00220F216FF0010001F0DD
S31508004F2007FD03B05DF804FB0010024070B59EB0A3
S31508004F300446002119911A911B911C911D91542226
S31508004F4004A807F0B8FD2268334B9A4201D01EB078
S31508004F5070BD4FF4804304934FF04053169304A852
S31508004F6003F0A6F9002850D12C4BDA6C42F4005213
S31508004F70DA64DA6C02F400520192019ADA6C42F0B1
S31508004F800102DA64DA6C02F001020292029ADA6C21
S31508004F9042F00202DA64DB6C03F002030393039B1C
S31508004FA0062319930B261A9600251B9519A94FF067
S31508004FB0904002F0F7F9032319931A961B9519A93D
S31508004FC0174802F0EFF91748174B036045608560EC
S31508004FD0C560802303614FF4807343614FF4806397
S31508004FE083612023C3614FF40053036201F0F0FE8E
S31508004FF070B90C4BE3649C6200220521122001F073
S3150800500097FC122001F0A4FCA1E7FFF7BFFDABE770
S31508005010FFF7BCFDEDE700BF00000450001002409A
S3150800502000040048280400203004024000B589B076
S315080050300023039304930593069307930268244B6E
S315080050409A4202D009B05DF804FB03F5D6339A6D8F
S3150800505042F000729A659A6D02F000720192019A06
S31508005060DA6C42F00102DA64DB6C03F001030293A6
S31508005070029B4FF4C053039302230493032306931E
S315080050800923079303A94FF0904002F08BF90022F9
S315080050900521132001F04CFC132001F059FC0022D5
S315080050A00521142001F044FC142001F051FC0022D3
S315080050B00521152001F03CFC152001F049FC0022D1
S315080050C00521162001F034FC162001F041FCB9E751
S315080050D0006400400268094B9A4200D0704782B0CB
S315080050E0A3F500539A6C42F480529A649B6C03F4BD
S315080050F080530193019B02B0704700BF0030024005
S3150800510000B589B000230393049305930693079388
S315080051100268124B9A4202D009B05DF804FB03F507
S31508005120CE339A6D42F000529A659A6D02F000529B
S315080051300192019ADA6C42F00102DA64DB6C03F040
S3150800514001030293029B102303930323049303A9E9
S315080051504FF0904002F026F9DEE700BF00740040E9
S3150800516010B59CB0044600211791189119911A910F
S315080051701B91542202A807F09EFC2268184B9A42FB
S3150800518001D01CB010BD4023029302A803F090F88A
S3150800519018BB144CE36C43F00103E364E36C03F0BF
S315080051A001030093009B4FF4C063179312231893CF
S315080051B00023199303231A9304231B9317A94FF06B
S315080051C0904002F0EFF8A36D43F40013A365A36DB6
S315080051D003F400130193019BD3E7FFF7D7FCD8E745
S315080051E0005400400010024010B588B00023039315
S315080051F0049305930693079302682F4B9A4201D0AE
S3150800520008B010BD044603F560431A6E42F4805296
S315080052101A661A6E02F480520192019ADA6C42F00A
S315080052200102DA64DB6C03F001030293029BE023BC
S31508005230039302230493032306930523079303A9E1
S315080052404FF0904002F0AEF81C481D4B0360012356
S31508005250436000238360C3608022026143618361E7
S31508005260C361036201F0B4FD00BB144BA3659C62E5
S315080052701448154B03600123436010238360002301
S31508005280C3608022026143618361C361036201F0E6
S315080052909FFD70B90B4B63659C6200220521232094
S315080052A001F046FB232001F053FBA9E7FFF76EFC4C
S315080052B0DBE7FFF76BFCEDE700300140B8020020A2
S315080052C01C000240700200203000024008B5002091
S315080052D0FEF7E8F901F040FBFEE708B50020FEF707
S315080052E0E1F901F039FBFEE708B50020FEF7DAF927
S315080052F001F032FBFEE708B50020FEF7D3F901F00E
S315080053002BFBFEE708B50020FEF7CCF901F024FBDD
S31508005310FEE7704708B500F0B3F806F0FBFC012875
S3150800532000D108BD07F096F9FBE7000008B502486A
S3150800533001F033FE08BD00BFB802002008B50248D8
S3150800534001F02BFE08BD00BF7002002008B5024818
S3150800535000F0D4F908BD00BF7004002008B5024863
S3150800536001F057F908BD00BF0004002008B502483F
S3150800537001F04FF908BD00BF0004002008B5024837
S3150800538001F047F908BD00BF0004002008B502482F
S3150800539001F03FF908BD00BF0004002008B5024827
S315080053A003F048FC08BD00BF0003002008B502480A
S315080053B001F0F3FD08BD00BF280400200E4AD2F80C
S315080053C0883043F47003C2F888300C4B1A6842F0F0
S315080053D001021A60002199601A6822F0A85222F484
S315080053E010221A604FF48052DA601A6822F480227A
S315080053F01A609961704700BF00ED00E00010024096
S3150800540008B50B460146184607F0E2FB08BD000042
S31508005410104B1B780BB90120704710B504464FF4A2
S315080054207A70B0FBF3F30C4A1068B0FBF3F001F0A6
S3150800543097FA68B90F2C01D901200AE00022214603
S315080054404FF0FF3001F074FA044B1C60002000E0B6
S31508005450012010BD98000020940000209C00002028
S3150800546010B5032001F052FA0F20FFF7D1FF10B153
S315080054700124204610BD0446FFF738FDF9E7000071
S31508005480034B1B78034A11680B441360704700BF2F
S3150800549098000020D4040020014B1868704700BF0C
S315080054A0D404002038B50446FFF7F6FF0546B4F1E4
S315080054B0FF3F02D0044B1B781C44FFF7EDFF401B4F
S315080054C0A042FAD338BD00BF9800002010B430308F
S315080054D00B0A9B0003F00C03C45801F01F014FF0A0
S315080054E01F0C0CFA01FC24EA0C0CC2F384628A40F5
S315080054F04CEA0202C2505DF8044B704710B41430EF
S315080055004B0E9B0003F00403C458C1F304514FF03B
S31508005510070C0CFA01FC24EA0C0C8A404CEA02023D
S31508005520C2505DF8044B704730B583B00023019331
S31508005530002800F0D0800446436D13B323689A68A8
S3150800554012F0005F05D09A6822F0204222F03F024E
S315080055509A602268936813F0805F1FD1936823F0DE
S31508005560104323F03F0343F0805393605B4B1B6863
S315080055709B095B4AA2FB03239B0901335B0001934A
S3150800558009E0FFF7D3FC0023A36584F85030D5E77C
S31508005590019B013B0193019B002BF9D1226893687B
S315080055A013F0805F70D1636D43F010036365A36DDC
S315080055B043F00103A3650120936813F0040300D0A8
S315080055C00123616D11F0100F7ED1002B7CD1636D24
S315080055D023F4817343F002036365936813F0010FA4
S315080055E00BD1404B9B6813F0010F06D163683E4907
S315080055F08A6822F47C1213438B60627E636B43EAEB
S315080056004233E2681343A268134394F8202043EA1E
S315080056100243012A3AD0A26A22B102F47072E16A00
S315080056200A4313432168CD68304A2A401A43CA60A0
S315080056302268936813F0080300D00123ABB9237ED0
S3150800564094F83010490041EA8331D36823F4804343
S3150800565023F002030B43D36094F83830012B1AD099
S315080056602268136923F0010313612369012B22D0F1
S315080056702268136B23F00F031363636D23F0030390
S3150800568043F00103636524E0002095E7626A013A66
S3150800569043EA4243BFE721680B696FF38A03E26B6B
S315080056A0256C2A43656C2A43A56C2A43134343F0A9
S315080056B001030B61D9E721680B6B23F00F03E2693D
S315080056C0013A13430B63D8E7636D43F01003636530
S315080056D0012003B030BD0120FBE700BF9400002085
S315080056E0632D3E05000004500003045007C0F0FF78
S315080056F008B5806AFEF7FEFC08BD704770B504461B
S3150800570003681E685D6816F0020F10D015F0020FC8
S315080057100DD0436D13F0100F03D1436D43F40063AE
S315080057204365204600F0D6FC236802221A6016F06C
S31508005730040F02D015F0040F05D116F0080F3AD061
S3150800574015F0080F37D0636D13F0100F03D1636D92
S3150800575043F4007363652368DA6812F4406F24D152
S31508005760DA6812F4005F20D11A6812F0080F1CD00C
S315080057709A6812F0040F10D15A6822F00C025A6087
S31508005780636D23F480736365636D13F4805F0CD1D6
S31508005790636D43F00103636507E0636D43F010032F
S315080057A06365A36D43F00103A3652046FEF798FCE5
S315080057B023680C221A6016F0200F02D015F0200F6D
S315080057C005D116F0400F4CD015F0400F49D0636D47
S315080057D013F0100F03D1636D43F400536365236818
S315080057E0DA6C12F0C00F2AD10121DA6812F4406F80
S315080057F027D10120DA6871B312F0007F03D050B3C5
S3150800580012F4005F27D1196811F0400F23D012F463
S31508005810001F20D19A6812F0080F14D15A6822F096
S3150800582060025A60636D23F480536365636D13F4F5
S31508005830807F10D1636D43F0010363650BE000219F
S31508005840D3E70020D6E7636D43F010036365A36DC5
S3150800585043F00103A365204600F038FC2368602264
S315080058601A6016F0800F02D015F0800F2DD116F4AD
S31508005870807F02D015F4807F32D116F4007F02D0E3
S3150800588015F4007F38D116F0100F17D015F0100F49
S3150800589014D0636B23B12368DB6813F0010F0AD0B9
S315080058A0636D43F480636365A36D43F00203A365E8
S315080058B02046FEF729FC236810221A6016F4806F2A
S315080058C002D015F4806F23D170BD636D43F4803325
S315080058D063652046FFF711FF236880221A60C6E732
S315080058E0636D43F400336365204600F0F1FB2368DB
S315080058F04FF480721A60C0E7636D43F480236365D2
S31508005900204600F0E6FB23684FF400721A60BAE7F7
S31508005910636D43F480436365A36D43F00803A36591
S3150800592023684FF480621A60204600F0D0FBCBE76C
S3150800593008B50346806A426D12F0500F30D1436DA8
S3150800594043F40073436503681A6812F0080F14D00D
S31508005950DA6812F4406F20D1DB6813F4005F1CD1BB
S31508005960436D23F480734365436D13F4805F14D14C
S31508005970436D43F0010343650FE0DB6813F0020F44
S315080059800BD1436D23F480734365436D13F4805F35
S3150800599003D1436D43F001034365FEF7A1FB08BD40
S315080059A0426D12F0100F04D1C26C526B1846904724
S315080059B0F5E7FEF7A9FBF2E708B5806A436D43F001
S315080059C040034365836D43F004038365FEF79CFB40
S315080059D008BD0000F0B583B00023019390F850305D
S315080059E0012B00F0048204460D46012380F850304E
S315080059F00068836813F0040F09D0636D43F0200331
S31508005A0063650120002384F8503003B0F0BD49686F
S31508005A10052907D8023903294ED8DFE801F0024FD5
S31508005A20484A0C212A68FFF751FD2068836813F05D
S31508005A30040300D00123826812F0080200D0012274
S31508005A400BB9002A3CD02268936813F0010F17D1CE
S31508005A502B68E868D2F8B010C3F3120621EA0601EB
S31508005A6000F0180CA84820FA0CF00340C3F3120300
S31508005A700B43C2F8B030EA68A44B9A4200F0A580FE
S31508005A802B68A34A134200F0AE81A24A926802F03C
S31508005A90E070A1498B4200F05881A0498B4200F082
S31508005AA07B819F498B4200F08B810020AAE7182151
S31508005AB0B8E74FF48071B5E70621B3E71221B1E7DD
S31508005AC0AA682968FFF71AFD69692268D368C3F3CB
S31508005AD0C1035B009940286904280ED02E686032FD
S31508005AE052F820708F4B3B4006F0F84631430B4383
S31508005AF043F0004342F82030A5E7136E116EC1F358
S31508005B0084612B68C3F3120080BBC3F38463994294
S31508005B1034D021684B6E4A6EC2F384622B68C3F395
S31508005B20120080BBC3F384639A4234D021688B6E1B
S31508005B308A6EC2F384622B68C3F3120080BBC3F378
S31508005B4084639A4234D02168CB6ECA6EC2F38462EB
S31508005B502B68C3F3120080BBC3F384639A427FF4B5
S31508005B6072AFCB6E23F00043CB666CE793FAA3F3D0
S31508005B7013B1B3FA83F3CAE72023C8E7136E23F0F9
S31508005B8000431366C5E793FAA3F313B1B3FA83F395
S31508005B90CAE72023C8E74B6E23F000434B66C5E7E8
S31508005BA093FAA3F313B1B3FA83F3CAE72023C8E73A
S31508005BB08B6E23F000438B66C5E793FAA3F313B104
S31508005BC0B3FA83F3CAE72023C8E720682B68C3F330
S31508005BD012063EBB9A0E013202F01F02092A8CBF3A
S31508005BE000220122002A55D05EBB990E0131890692
S31508005BF001F0F8418EBB4FEA936C0CF1010C0CF0E6
S31508005C001F0C012202FA0CF21143AEBB9B0E0133A4
S31508005C1003F01F0303EB43031B051943AA68FFF7A9
S31508005C206DFC2DE793FAA3F24AB1B2FA82F2013279
S31508005C3002F01F02092A8CBF00220122D2E7202285
S31508005C40F5E793FAA3F131B1B1FA81F10131890689
S31508005C5001F0F841CEE72021F8E793FAA3F24AB11A
S31508005C60B2FA82F2013202F01F024FF0010C0CFA6E
S31508005C7002F2C9E72022F5E793FAA3F343B1B3FA90
S31508005C8083F3013303F01F0303EB43031B05C4E748
S31508005C902023F6E7E6B9990E0131890601F0F841A5
S31508005CA016BB4FEA936C0CF1010C0CF01F0C012289
S31508005CB002FA0CF21143BEBB9B0E013303F01F031D
S31508005CC003EB43031E3B1B0543F000731943A5E78B
S31508005CD093FAA3F131B1B1FA81F10131890601F0E4
S31508005CE0F841DDE72021F8E793FAA3F24AB1B2FAC0
S31508005CF082F2013202F01F024FF0010C0CFA02F296
S31508005D00D8E72022F5E700BFFFFF070000007F4025
S31508005D100000088000030450000052C7000084CB2E
S31508005D200100008000F0FF0393FAA3F35BB1B3FA16
S31508005D3083F3013303F01F0303EB43031E3B1B05E9
S31508005D4043F00073C2E72023F3E712F4000F7FF451
S31508005D50A4AE2268274B9A4201D0002052E640F4AE
S31508005D60000325498A6822F0E07213438B60234BAF
S31508005D701B689B09224AA2FB03239B09013303EBF9
S31508005D8043039B00019302E0019B013B0193019BA6
S31508005D90002BF9D1002035E612F0807F7FF481AE22
S31508005DA02268144B9A4201D000202BE640F08073FB
S31508005DB011498A6822F0E07213438B60002021E6BD
S31508005DC012F4800F11D122680A4B9A4201D00020A2
S31508005DD018E640F4800308498A6822F0E072134303
S31508005DE08B6000200EE600200CE600200AE6022062
S31508005DF00BE600BF00000450000304509400002086
S31508005E00632D3E0530B583B00023019303689A6875
S31508005E1012F0010F58D1044699682D4A114219D13A
S31508005E209A6822F0004222F03F0242F001029A608C
S31508005E30284B9B6813F4000F1CD0274B1B689B0943
S31508005E40264AA2FB03239B09013303EB43039B006A
S31508005E5001930CE0436D43F010034365836D43F0F3
S31508005E6001038365012030E0019B013B0193019BFF
S31508005E70002BF9D1FFF710FB054623681A6812F0C4
S31508005E80010F1FD19A6812F0010F07D19A6822F004
S31508005E90004222F03F0242F001029A60FFF7FCFA44
S31508005EA0431B022BE9D923681B6813F0010FE4D1C1
S31508005EB0636D43F010036365A36D43F00103A365A7
S31508005EC0012002E0002000E0002003B030BD00BF42
S31508005ED03F0000800003045094000020632D3E0517
S31508005EE070B504460068806810F0040F4ED10E465F
S31508005EF0154694F85030012B4AD0012384F85030C7
S31508005F002046FFF77FFF00283CD1636D23F47063BA
S31508005F1023F0010343F480736365636D13F4805FB4
S31508005F202DD0A36D23F00603A365E36C194ADA6244
S31508005F30E36C194A1A63E36C184A5A6323681C22ED
S31508005F401A60002384F850302268536843F010031F
S31508005F5053602268D36843F00103D36021682B4657
S31508005F6032464031E06C00F0B5FF2268936823F0B2
S31508005F70004323F03F0343F00403936007E0002344
S31508005F80A365D2E7002384F8503000E0022070BDF4
S31508005F900220FCE731590008F1560008B9590008F3
S31508005FA038B504460268936813F0020300D001234B
S31508005FB0916811F0010F39D0002B39D1936803F09D
S31508005FC00D03012B09D0636D43F010036365A36DC0
S31508005FD043F00103A365012029E0936823F00043F9
S31508005FE023F03F0343F002039360236803221A60F9
S31508005FF0FFF752FA054623689B6813F0010F13D082
S31508006000FFF74AFA401B0228F5D923689B6813F064
S31508006010010FF0D0636D43F010036365A36D43F081
S315080060200103A365012002E0002000E0002038BD3E
S315080060300020FCE730B583B00023019390F8503078
S31508006040012B41D004460D46012380F85030FFF756
S31508006050A7FF80BB636D23F4885323F0020343F044
S31508006060020363652268936823F0404323F03F03E5
S3150800607005F080452B4343F00043936023689B68F3
S31508006080002B06DB636D23F0030343F0010363650E
S3150800609015E0019B01330193019BB3F5912FEDD3D5
S315080060A0636D23F0120343F010036365002384F83D
S315080060B05030012006E0636D43F01003636500234A
S315080060C084F8503003B030BD0220FBE770477047B4
S315080060D0704770477047002800F0A18038B504461D
S315080060E090F82030D3B12268136843F00103136097
S315080060F0FFF7D2F9054623685A6812F0010F10D146
S31508006100FFF7CAF9401B0A28F5D9636A43F4003336
S315080061106362052384F82030012038BDFEF786FF28
S31508006120E1E71A6822F002021A60FFF7B5F9054698
S3150800613023685A6812F0020F0DD0FFF7ADF9401B1D
S315080061400A28F5D9636A43F400336362052384F8A1
S3150800615020300120E1E7227E012A3DD01A6822F08C
S3150800616080021A60637E012B3BD02268136823F0F5
S3150800617040031360A37E012B39D02268136823F0ED
S3150800618020031360E37E012B37D02268136843F09F
S3150800619010031360237F012B35D02268136823F080
S315080061A008031360637F012B33D02268136823F03A
S315080061B004031360A368E268134322691343626900
S315080061C013436268013A21681343CB610020606279
S315080061D0012384F82030A0E71A6842F080021A608A
S315080061E0C0E72268136843F040031360C2E72268D9
S315080061F0136843F020031360C4E72268136823F08A
S3150800620010031360C6E72268136843F00803136097
S31508006210C8E72268136843F004031360CAE701203D
S315080062207047026890F82030013BDBB2012B05D994
S31508006230436A43F4802343620120704730B4D2F89E
S31508006240003243F00103C2F800324B6903F01F0322
S31508006250012000FA03F3D2F81C026FEA030C20EAC5
S315080062600300C2F81C02C869B0B9D2F80C020CEADD
S315080062700000C2F80C028C884869CD6844EA0544D7
S31508006280483042F830400C8848698D6844EA05442D
S31508006290483002EBC0004460C86901281BD08869F1
S315080062A080BBD2F804020CEA0000C2F804020869AE
S315080062B070BBD2F814020CEA0000C2F81402096A8C
S315080062C001292BD0D2F8003223F00103C2F800329C
S315080062D0002030BC7047D2F80C021843C2F80C02F2
S315080062E08C8848690D6844EA0544483042F83040CD
S315080062F08C8948698D6844EA0544483002EBC00039
S315080063004460CCE7D2F804021843C2F80402CEE788
S31508006310D2F814021843C2F81402D0E7D2F81C12B5
S315080063200B43C2F81C32CDE770B5044690F82050EE
S31508006330EDB2012D06D0436A43F4002343620125DA
S31508006340284670BD022380F820300268136823F0BF
S3150800635001031360FFF7A0F8064623685B6813F08D
S31508006360010F0CD0FFF798F8831B0A2BF5D9636A3F
S3150800637043F400336362052384F82030E0E7002500
S315080063806562DDE730B590F820C00468A4680CF1B2
S31508006390FF3C5FFA8CFCBCF1010F62D814F0E05F99
S315080063A059D0C4F3016C012404FA0CF41C608B6800
S315080063B0002B3DD10D68CB68046843EA45550CF1BE
S315080063C018031B01E55003680C690CF1180E03EB62
S315080063D00E135C600B7D012B35D0D17993791B04A4
S315080063E043EA0163517943EA012314790168234397
S315080063F001EB0C11C1F88C31D17893781B0443EA70
S315080064000163517843EA0123117802680B4302EBD2
S315080064100C12C2F8883102680CF1180C4FEA0C1CF1
S3150800642052F80C3043F0010342F80C3000201DE00E
S315080064304C6843EAC403CC6823430CF118042401CE
S3150800644005682B51BFE7036803EB0E13596841F43F
S3150800645080715960C1E7436A43F40013436201201F
S3150800646004E0436A43F480234362012030BD90F878
S3150800647020C00CF1FF3C5FFA8CFCBCF1010F00F266
S31508006480A58030B451B90468E46814F0030F10D13C
S31508006490436A43F40013436201207EE004682469DA
S315080064A014F0030F05D1436A43F400134362012035
S315080064B073E0056801F11B0424012C5904F0040457
S315080064C09460002C6BD1056801F11B0424012C593A
S315080064D0640D1460046801F11B0C4FEA0C1C54F897
S315080064E00C4004F00204D4600468A444DCF80450A8
S315080064F015F0080F5BD008241461046801F11B0C21
S3150800650004EB0C146468C4F307249461046804EB70
S315080065100C146468240C5461026802EB0112D2F868
S31508006520B8211A70026802EB0112D2F8B821C2F338
S3150800653007225A70026802EB0112D2F8B821C2F398
S3150800654007429A70026802EB0112D2F8B821120EBD
S31508006550DA70026802EB0112D2F8BC211A710268DD
S3150800656002EB0112D2F8BC21C2F307225A71026863
S3150800657002EB0112D2F8BC21C2F307429A710268F3
S3150800658002EB0112D2F8BC21120EDA71C1B9026807
S31508006590D36843F02003D360002030BC70470568F9
S315080065A001F11B0424012C59E408546092E701F117
S315080065B01B0504EB0514646804F00F0414619CE7DA
S315080065C00268136943F020031361E5E7436A43F45D
S315080065D0802343620120704790F82030013BDBB2EC
S315080065E0012B05D9436A43F480234362012070478F
S315080065F0026853690B435361002070477047704720
S3150800660070477047704770477047704770477047C4
S3150800661070472DE9F84F054603685C69D3F804808E
S315080066209F68D3F80CA0D3F81090D3F818B014F0DC
S3150800663001063BD017F0010616D001229A6017F022
S31508006640020F08D117F0040F0CD117F0080606D070
S315080066504FF4805608E0FFF7D1FF002604E0FFF765
S31508006660D0FF01E04FF4006617F4807F0DD02B6849
S315080066704FF480729A6017F4007F40F0968017F402
S31508006680806F00F0968046F4005617F4803F0DD0D0
S315080066902B684FF480329A6017F4003F40F09380DD
S315080066A017F4802F00F0938046F4004614F0080F84
S315080066B007D01AF0100F04D046F400762B68102283
S315080066C0DA6014F0040F03D01AF0080F40F089803E
S315080066D014F0020F05D02B68DB6813F0030F40F0A7
S315080066E0878014F0400F07D019F0100F04D046F435
S315080066F080662B6810221A6114F0200F02D019F058
S31508006700080F79D114F0100F04D02B681B6913F009
S31508006710030F78D114F4003F02D018F0100F76D189
S3150800672014F4803F02D018F0080F77D114F4004F04
S3150800673037D018F0040F31D014F4807F04D01BF042
S31508006740010F01D046F0010614F4007F04D01BF0B7
S31508006750020F01D046F0020614F4806F04D01BF035
S31508006760040F01D046F0040614F4006F16D01BF08F
S31508006770700B13D0BBF1400F66D056D8BBF1200F73
S315080067805CD0BBF1300F5CD0BBF1100F01D146F0E5
S3150800679008062A68936923F0700393612B6804221C
S315080067A05A60002E56D1BDE8F88F2846FFF727FF16
S315080067B06BE717F4006F02D046F4804665E7284673
S315080067C0FFF720FF61E72846FFF71AFF6EE717F481
S315080067D0002F02D046F4803668E72846FFF713FFF5
S315080067E064E72B680822DA602846FFF70DFF6FE793
S315080067F02846FDF71DFE74E72B6808221A6128460D
S31508006800FFF704FF7EE72846FFF7FFFE82E72B68BF
S3150800681010225A602846FFF7FAFE81E72B680822FD
S315080068205A602846FFF7F4FE80E7BBF1500F0ED0FA
S31508006830BBF1600FADD146F48076AAE746F01006A4
S31508006840A7E746F02006A4E746F04006A1E746F08B
S3150800685080069EE76B6A33436B622846FDF70AFE9D
S31508006860A1E70000002807DB00F01F02400901230A
S315080068709340024A42F82030704700BF00E100E02A
S31508006880002808DB0901C9B200F1604000F5614043
S3150800689080F80013704700F00F000901C9B2014BD8
S315080068A01954704714ED00E000B500F00700C0F178
S315080068B0070CBCF1040F28BF4FF0040C031D062B70
S315080068C00FD9C31E4FF0FF3E0EFA0CF021EA000165
S315080068D099400EFA03FE22EA0E0241EA02005DF82A
S315080068E004FB0023EEE70000BFF34F8F0549CA6893
S315080068F002F4E062044B1343CB60BFF34F8F00BF33
S31508006900FDE700BF00ED00E00400FA05074AD3687A
S3150800691023F4E0631B041B0C000200F4E06003434D
S3150800692043F0BF6343F40033D360704700ED00E0E3
S3150800693010B50446054BD868C0F30220FFF7B4FF2C
S3150800694001462046FFF79CFF10BD00BF00ED00E0A2
S3150800695008B5FFF787FF08BD08B5FFF7C5FF0000B4
S315080069600138B0F1807F0BD24FF0E0235861054A19
S31508006970F02182F823100020986107221A617047D7
S315080069800120704700ED00E0002838D010B5044615
S31508006990437F1BB30223637723791BBB2368194AFA
S315080069A05A612268936823F018039360637913BBCE
S315080069B023684FF0FF321A612268936823F0600358
S315080069C061690B4393602268936823F08003A16989
S315080069D00B43936001236377002010BD0377FEF70E
S315080069E079FBD7E7E268A168204600F00DF8002891
S315080069F0DCD00120F1E7236822691A61DCE701206F
S31508006A00704700BFB71DC10411F0010F30D010B494
S31508006A101F231C46013B34B103F01F0C21FA0CFC62
S31508006A201CF0010FF5D0182A24D8DFE802F00F234E
S31508006A302323232323231D23232323232323192328
S31508006A402323232323230D00062B17D80368596114
S31508006A5001688B6823F0180313438B6000200AE053
S31508006A60072BF3D9012006E00F2BEFD9012002E00E
S31508006A700120704701205DF8044B70470120FAE7B2
S31508006A8070B110B50446037933B10223237100208F
S31508006A9020610123237110BD4371FEF731FBF4E732
S31508006AA0012070474279012A2CD010B403460122EE
S31508006AB04271022018711C68206801F0100C02FA55
S31508006AC00CF20243226089B919680A6802F03C028E
S31508006AD0042A06D001221A71002058715DF8044B69
S31508006AE070474A6842F001024A60F3E719680A6883
S31508006AF002F47012B2F5802FECD14A6842F0020215
S31508006B004A60E7E70220704710B483B00024019476
S31508006B100068019051B901990A4408320192019A14
S31508006B201360002003B05DF8044B704701990A44CE
S31508006B3014320192F3E7F8B54379012B00F09E80F1
S31508006B4004460D46164601234371022303710B685A
S31508006B50042B33D02B69012B00F083802068C16B8E
S31508006B6006F010020723934021EA03012B68AE685A
S31508006B703343EE68334393400B43C363206803688B
S31508006B804FF48041914023EA0103036020680168BD
S31508006B9040F6FC73934021EA03016B6893400B436C
S31508006BA0036020680368C02101FA02F223EA02039F
S31508006BB003600123237100206071F8BDFEF76CFCA9
S31508006BC007469EB123685B6B002B43DAFEF764FC2D
S31508006BD0C01B0128F6D923685B6B002BF2DA236900
S31508006BE043F00803236103202071E6E723685B6B03
S31508006BF013F4004F10D0FEF74FFCC01B0128F5D93F
S31508006C0023685B6B13F4004FF0D0236943F0080345
S31508006C10236103202071D0E70120FEF743FC236897
S31508006C20AA691A642068836C06F0100240F2FF31E4
S31508006C30914023EA0103E96991400B438364206884
S31508006C40C36CFF21914023EA0103296A91400B4353
S31508006C50C3647FE70120FEF725FC2368AA695A6406
S31508006C60E0E721688A6B06F010001F23834022EABA
S31508006C7003026B69834013438B636FE702209CE72B
S31508006C80002800F085802DE9F04F83B08946044638
S31508006C900379DBB2022B7DD04379012B7CD001210D
S31508006CA041710068C56B02F010070723BB4005EA6F
S31508006CB0030B0568B94025EA010101602068C16B2C
S31508006CC06FEA030A21EA0303C3632368019392B9AF
S31508006CD0019B08330193019B4FF400621A602268F6
S31508006CE013684FF4804808FA07F843EA0803136064
S31508006CF00825102605E0019B14330193EBE72E4483
S31508006D006D089DB121688B6B1F22BA4023EA0203E6
S31508006D1006FA07F213438B630120FEF7C3FB2368C9
S31508006D205B6B38EA0303EAD1761BE9E721688B6BCC
S31508006D301F22BA40D54323EA020306FA07F2134391
S31508006D408B630120FEF7AEFB23685A6B18EA020F25
S31508006D5008D11E2E06D801369A6B154006FA07F793
S31508006D603D439D632268136823EA08031360C9F844
S31508006D7014600123C9F810302268D36B0AEA030AA3
S31508006D804AEA0B03D3630020607103B0BDE8F08FB5
S31508006D90012070470120F8E70220F6E730B4446C7A
S31508006DA004F01C0C012404FA0CF4056C6C600468ED
S31508006DB063608368102B05D0036899600368DA60FE
S31508006DC030BC704703689A600368D960F8E700002A
S31508006DD0002871D010B403460168384A914248D851
S31508006DE0374A0A443748A0FB0202120992005A643D
S31508006DF0354A1A64022283F8252008686FF30E10B4
S31508006E009A68DC6822431C6922435C6922439C69B0
S31508006E102243DC6922431C6A224302430A609A68B9
S31508006E20B2F5804F1BD0196C274A91422CD0264ABE
S31508006E30D2F8A814586C00F01C0C0F2000FA0CF0BD
S31508006E4021EA0001C2F8A814D2F8A81458685C6CA4
S31508006E5004F01C0C00FA0CF00143C2F8A814002038
S31508006E60D863012283F8252083F824005DF8044BB3
S31508006E707047164A0A441348A0FB020212099200F8
S31508006E805A64134A1A64B5E7D2F8A810586C00F089
S31508006E901C0C0F2000FA0CF021EA0001C2F8A81019
S31508006EA0D2F8A81058685C6C04F01C0C00FA0CF0B8
S31508006EB00143C2F8A810D2E7012070470704024030
S31508006EC0F8FFFDBFCDCCCCCC00000240F8FBFDBFDF
S31508006ED00004024038B5044690F82400012832D050
S31508006EE0012084F8240094F82500C0B2012804D0B3
S31508006EF0002384F82430022038BD022084F82500B7
S31508006F000020E0632568286820F0010028602046F4
S31508006F10FFF744FF236B5BB12268136843F00E0347
S31508006F2013602268136843F0010313600020E3E747
S31508006F302268136823F0040313602268136843F079
S31508006F400A031360EDE70220D6E708B590F8253066
S31508006F50DBB2022B03D00423C363012008BD0268F9
S31508006F60136823F00E0313600268136823F0010305
S31508006F701360436C03F01C03016C012202FA03F34D
S31508006F804B6080F82520002380F82430836B13B1EA
S31508006F9098470020E2E70020E0E738B5036C196857
S31508006FA004682568436C03F01C0304229A400A42CD
S31508006FB015D015F0040F12D0236813F0200F03D153
S31508006FC0236823F004032360436C03F01C02016C5E
S31508006FD0042393404B60036B03B1984738BD0222E4
S31508006FE09A400A421CD015F0020F19D0236813F0F4
S31508006FF0200F06D1236823F00A032360012380F8B3
S315080070002530436C03F01C02016C022393404B604D
S31508007010002380F82430C36A002BDFD09847DDE7C9
S31508007020082202FA03F30B42D8D015F0080FD5D080
S31508007030236823F00E032360436C03F01C03016CE2
S31508007040012202FA03F34B60C26380F8252000236D
S3150800705080F82430436B002BC0D09847BEE7000069
S3150800706010B4064C616941F0010161610260BFF329
S315080070706F8F43605DF8044B704700BF00200240E5
S31508007080094A536943F480235361EFF3108C72B6AF
S31508007090402351F8042B40F8042B013B13F0FF035F
S315080070A0F7D18CF31088704700200240094B5B69C2
S315080070B0002B01DB00207047064B074A9A6002F155
S315080070C088329A605B69002B01DB0020704701203B
S315080070D0704700BF0020024023016745034A5369F1
S315080070E043F0004353610020704700BF0020024070
S315080070F038B50446FEF7D0F90546144B1B6913F458
S31508007100803F09D0B4F1FF3FF7D0FEF7C5F9401B21
S31508007110A042F2D3032015E00C4B1B690C4A13401E
S3150800712009D10A4B1B6913F0010F0CD0074B01223A
S315080071301A61002006E007494A681A434A60034A6A
S315080071401361012038BD0020FCE700BF0020024083
S31508007150FAC30200A00000202DE9F0411646284A8D
S315080071601278012A49D004460D469846244B012236
S315080071701A704CF25030FFF7BBFF074608BB204B8E
S3150800718000225A601F4B1B6813F4806F1FD01D4ADC
S31508007190136823F480631360194B02221A77D4B15B
S315080071A0631E012B1ED900244CF25030FFF7A0FFB6
S315080071B0074624B1134A536923EA0403536100F0CE
S315080071C047F80F4B00221A703846BDE8F0810C4B81
S315080071D000221A77E3E7324643462846FFF740FF80
S315080071E00124E1E731462846FFF74AFF022C01D081
S315080071F00024D9E74FF48024D6E70227E4E700BF46
S31508007200A00000200020024010F0010F04D0054A1B
S31508007210536943F004035361024A536943F48033C4
S315080072205361704700200240084B5A6922F47E7267
S31508007230C00000F4FF6002435A615A6942F0020234
S315080072405A615A6942F480325A61704700200240F6
S31508007250164B1B7FDBB2012B01D0032B10D1144A2E
S31508007260116821F400711160116841F40061116020
S31508007270116821F400611160116841F40071116010
S31508007280023BDBB2012B03D9084B00221A77704761
S31508007290074B1A6842F480521A601A6822F4805220
S315080072A01A601A6842F480621A60EDE7A0000020AE
S315080072B000200240F8B5394B1B78012B6BD00446E9
S315080072C00E46364B01221A704CF25030FFF710FF6B
S315080072D0074600285AD1314B00225A60304B1B68AA
S315080072E013F4007F2FD02E4B1B6813F4806F26D023
S315080072F02B4A136823F480631360284B03221A77FA
S315080073002368012B31D04FF0FF333360A568A3689B
S31508007310E2681344AB4237D961682846FFF784FF11
S315080073204CF25030FFF7E4FE1D4A536923F47E738E
S3150800733023F002035361074628BB0135E7E7174BDD
S3150800734001221A77DCE7164B1B6813F4806F08D006
S31508007350134A136823F480631360104B02221A77CA
S31508007360CEE70E4B00221A77CAE76068FFF74CFF94
S315080073704CF25030FFF7BCFE0746094A536923F022
S315080073800403536100E03560FFF762FF034B0022F8
S315080073901A703846F8BD0227FBE700BFA000002098
S315080073A000200240F0B583B0002362E085685E00E5
S315080073B00324B44025EA0405CC68B4402C43846011
S315080073C0456825EA0C054C68C4F300149C402C4318
S315080073D044605FE0DD08083550F8254003F0070CE7
S315080073E04FEA8C0C4FF00F0E0EFA0CFE24EA0E0E26
S315080073F00C6904FA0CF444EA0E0440F8254060E0EF
S31508007400022400E0002404FA0EF42C430CF1020CCA
S315080074104C4D45F82C404C4CA568D44325EA020649
S315080074204F6817F4801F01D042EA0506464DAE6044
S31508007430ED6804EA05064F6817F4001F01D042EA12
S315080074400506414DEE606D6804EA05064F6817F4B7
S31508007450003F01D042EA05063B4D6E602D682C4080
S315080074604E6816F4803F01D042EA0504364A146095
S3150800747001330A6832FA03F462D04FF0010C0CFAB1
S3150800748003FC1CEA0202F3D04C6804F00304013C36
S31508007490012C8BD94C6804F00304032C0CD0C46867
S315080074A05D004FF0030C0CFA05FC24EA0C0C8C6802
S315080074B0AC4044EA0C04C4604C6804F00304022C93
S315080074C088D004684FEA430E4FF0030C0CFA0EFC02
S315080074D024EA0C0C4C6804F0030404FA0EF444EA9B
S315080074E00C0404604C6814F4403FC1D0174C256E58
S315080074F045F001052566246E04F001040194019CFB
S315080075004FEA930C0CF102050E4C54F8255003F083
S31508007510030E4FEA8E0E0F2404FA0EF425EA04052C
S31508007520B0F1904F3FF46EAF094CA04206D004F577
S315080075308064A0423FF464AF072464E7012462E74D
S3150800754003B0F0BD000001400004014000100240F5
S31508007550000400480369194201D001207047002041
S3150800756070470AB18161704781627047436901EAD1
S31508007570030221EA030141EA0241816170470028BA
S315080075805FD010B5044690F84130002B48D024232C
S3150800759084F841302268136823F001031360636896
S315080075A0226823F0706313612268936823F400430A
S315080075B09360E368012B38D0A368226843F4044338
S315080075C09360E368022B36D02268536823F400637D
S315080075D053602268536843F0007343F400435360D2
S315080075E02268D36823F40043D3602369626913438E
S315080075F0A169226843EA0123D360E369216A226804
S315080076000B4313602268136843F0010313600020DC
S315080076106064202384F84130206384F8420010BD5A
S3150800762080F84030FDF79CFDB1E7A368226843F473
S3150800763000439360C5E72268536843F400635360C8
S31508007640C7E701207047034690F84120D2B2202AA6
S3150800765023D190F84020012A21D0012280F8402029
S31508007660242280F841200068026822F001020260A4
S315080076701868026822F4805202601868026811438A
S31508007680016019680A6842F001020A60202283F83C
S315080076904120002083F840007047022070470220EE
S315080076A07047034690F84120D2B2202A21D190F89B
S315080076B04020012A1FD0012280F84020242280F889
S315080076C041200068026822F0010202601868026818
S315080076D022F4706242EA0122026019680A6842F0DE
S315080076E001020A60202283F84120002083F8400026
S315080076F070470220704702207047002831D038B5FD
S31508007700044603684CF6CC421A60036845F25552A3
S315080077101A60036842685A60036882689A60FDF7CF
S31508007720BBFE05462368DA6812F0070F0DD0FDF791
S31508007730B3FE401B41F601039842F3D92368DB6880
S3150800774013F0070FEED0032005E01969E2689142AD
S3150800775002D01A61002038BD4AF6AA221A60002013
S31508007760F9E70120704703684AF6AA221A60002042
S3150800777070470000024B186800F4C060704700BFED
S3150800778000700040B0F5007F0FD01F4B1B6803F454
S31508007790C063B3F5806F34D01B4A136823F4C06303
S315080077A043F48063136000207047174B1B6803F48B
S315080077B0C063B3F5007F20D0134A136823F4C0636F
S315080077C043F400731360114B1B68322202FB03F368
S315080077D00F4AA2FB03239B0C013300E0013B0A4A34
S315080077E0526912F4806F01D0002BF7D1064B5B6902
S315080077F013F4806F03D100207047002070470320E0
S3150800780070470020704700BF0070004094000020B9
S3150800781083DE1B4330B583B00446204B9B6D13F0C3
S31508007820805F0BD0FFF7A6FFB0F5007F17D0802C3E
S315080078301FD82DD0702C2DD000211BE0174DAB6D15
S3150800784043F08053AB65AB6D03F080530193019B06
S31508007850FFF790FFAB6D23F08053AB65E4E7802C10
S3150800786003D9A02C03D9022104E0002102E001215A
S3150800787000E003210A4A136823F007030B43136049
S31508007880136803F007038B4206D1002003B030BD0E
S315080078900221EFE70121EDE70120F7E7001002409A
S315080078A000200240254A9368D26802F0030213F0CA
S315080078B00C0309D00C2B05D0042B3BD0082B3BD04E
S315080078C000200FE0012AF7D11C4A126812F0080FAF
S315080078D00CD11A4AD2F89420C2F30322184951F857
S315080078E0220013B10C2B06D000207047134A1268E9
S315080078F0C2F30312F2E7114BDB6803F00303022B12
S3150800790016D0032B00D10F480C49CA68C2F30212DD
S315080079100132CB68C3F3062300FB03F3B3FBF2F390
S31508007920C868C0F3416001304000B3FBF0F070470F
S315080079300548E9E7044870470248704700100240C6
S31508007940C4D20008005A62020024F400002800F09D
S315080079501C83F0B583B00446964B9D6805F00C056C
S31508007960DE6806F00306036813F0100F5AD0E5B177
S315080079700C2D18D0A369002B00F0BB808D4A136824
S3150800798043F001031360FDF787FD0746894B1B6823
S3150800799013F0020F40F09A80FDF77EFDC01B022807
S315080079A0F4D90320FCE2012EE4D1824B1B6813F0C4
S315080079B0020F03D0A369002B00F0E982206A7D4BF1
S315080079C01B6813F0080F5BD07A4B1B6803F0F003B3
S315080079D098425CD8774B1A6842F008021A601A680F
S315080079E022F0F002216A0A431A605A6822F47F429A
S315080079F0E16942EA01225A60002D60D0FFF752FF82
S31508007A006C4B9B68C3F303136B4AD35C03F01F03E9
S31508007A10D8406A4B18606A4B1868FDF7F9FC0028CD
S31508007A2040F0BE82236813F0010F00F08180082D14
S31508007A3075D00C2D71D06368B3F5803F00F0978040
S31508007A40B3F5A02F00F099805A4B1A6822F48032B9
S31508007A501A601A6822F480221A606368002B00F004
S31508007A609980FDF719FD0746524B1B6813F4003F32
S31508007A705ED1FDF711FDC01B6428F5D903208FE2FE
S31508007A804C4BD3F894301B0903F0F003A0E7FFF73B
S31508007A90C1FE002840F07D82464B1A6842F0080273
S31508007AA01A601A6822F0F002216A0A431A605A68B4
S31508007AB022F47F42E16942EA01225A609EE7206A7F
S31508007AC0FFF7A8FE002899D0012069E2394B1A6809
S31508007AD042F008021A601A6822F0F002216A0A4384
S31508007AE01A605A6822F47F42E16942EA01225A6022
S31508007AF098E7304A136823F001031360FDF7CCFCBE
S31508007B0007462C4B1B6813F0020F8BD0FDF7C4FCFD
S31508007B10C01B0228F5D9032042E2032E8BD1254B40
S31508007B201B6813F4003F03D06368002B00F0338210
S31508007B30236813F0020F58D0042D45D00C2D41D0E0
S31508007B40E368002B77D01B4A136843F480731360ED
S31508007B50FDF7A2FC0646174B1B6813F4806F61D12C
S31508007B60FDF79AFC801B0228F5D9032018E2114A72
S31508007B70136843F4803313606FE703F18043A3F57A
S31508007B803C331A6842F480221A601A6842F480323A
S31508007B901A6062E7FDF780FC0746064B1B6813F47C
S31508007BA0003FC5D0FDF778FCC01B6428F5D9032033
S31508007BB0F6E100BF00100240F4D20008940000204D
S31508007BC09C000020022EBBD1A44B1B6813F4806FC7
S31508007BD003D0E368002B00F0E081A04A536823F045
S31508007BE0F853216943EA01635360236813F0080FC9
S31508007BF04CD063699BB3994AD2F8943043F0010399
S31508007C00C2F89430FDF748FC0646944BD3F89430F6
S31508007C1013F0020F3AD1FDF73FFC801B0228F4D976
S31508007C200320BDE18D4A536823F0F853216943EADE
S31508007C3001635360D9E7894A136823F48073136094
S31508007C40FDF72AFC0646854B1B6813F4806FCCD0DB
S31508007C50FDF722FC801B0228F5D90320A0E17F4A04
S31508007C60D2F8943023F00103C2F89430FDF714FCDF
S31508007C7006467A4BD3F8943013F0020F06D0FDF778
S31508007C800BFC801B0228F4D9032089E1236813F032
S31508007C90040F7AD0714B9B6D13F0805F36D16F4B12
S31508007CA09A6D42F080529A659B6D03F0805301935A
S31508007CB0019B01266A4B1B6813F4807F28D0A368B2
S31508007CC0012B39D0052B3FD0644BD3F8902022F0F6
S31508007CD00102C3F89020D3F8902022F00402C3F8DA
S31508007CE09020A368002B3DD0FDF7D6FB07465B4BDB
S31508007CF0D3F8903013F0020F46D1FDF7CDFBC01B29
